:04000000A5EF0BF06D
:10060000002020202020202020202020202020200A
:10061000200020202020434F554E5445523A2020A0
:100620002020002041554C412031202D204C4344B6
:100630003A20200025303264000042C0D9FF43C078
:10064000DAFFDECFF6FFDDCFF7FF0800F550250A11
:10065000D8A42DEF03F02FEF03F0A8EF04F042C071
:10066000D9FF43C0DAFFDE2A000EDD22000E746ED1
:10067000000E736E73C077F074C078F0756876689A
:10068000000E536E000E526E8CEF03F0778042C066
:10069000D9FF43C0DAFFDE2A000EDD228CEF03F023
:1006A000778247EF03F0778447EF03F0778647EFD1
:1006B00003F0778847EF03F0000E536E010E526E81
:1006C0008CEF03F042C0D9FF43C0DAFFDECFF6FF64
:1006D000DDCFF7FF0800F550466E476A4750000A25
:1006E000D8B475EF03F05CEF03F04650200AD8B49D
:1006F00056EF03F0030AD8B459EF03F0080AD8B450
:1007000053EF03F0060AD8B446EF03F01D0AD8B43D
:1007100050EF03F05CEF03F052505310D8B493EF56
:1007200003F095EF03F062EF03F077A09AEF03F088
:100730009CEF03F09DEF03F0779242C0D9FF43C0D6
:10074000DAFFDECFF6FFDDCFF7FF0800F5502A0A0B
:10075000D8A4ADEF03F0AFEF03F0D8EF03F042C041
:10076000D9FF43C0DAFFDE2A000EDD2244C0D9FFE4
:1007700045C0DAFFDFCF46F0020EDE26DFCF47F0BE
:10078000000EDD2246C0D9FF47C0DAFFDECF73F08E
:10079000DDCF74F074BED1EF03F0CFEF03F00EEFB6
:1007A00004F07780736C741ED8B0742A0EEF04F0D6
:1007B00042C0D9FF43C0DAFFDECF08F0DDCF09F039
:1007C000A9EC07F008C073F009C074F0EFEF03F074
:1007D00042C0D9FF43C0DAFFDE2A000EDD22D00E70
:1007E000466EFF0E476E42C0D9FF43C0DAFFDECF30
:1007F000F6FFDDCFF7FF0800F550486E496A465016
:10080000482647504922495009E10A0E485CD8A0C1
:100810000CEF04F00EEF04F0E8EF03F042C0D9FF54
:1008200043C0DAFFDECFF6FFDDCFF7FF0800F5505B
:10083000640AD8B41EEF04F020EF04F032EF04F0A5
:1008400042C0D9FF43C0DAFFDECFF6FFDDCFF7FFAE
:100850000800F550690AD8A430EF04F032EF04F034
:1008600072EF04F042C0D9FF43C0DAFFDE2A000E67
:10087000DD2244C0D9FF45C0DAFFDFCF46F0020ECB
:10088000DE26DFCF47F0000EDD2246C0D9FF47C08D
:10089000DAFFDECF4AF0DDCF4BF0000E4BBEFF0E8D
:1008A0004C6E4D6E4E6E4F6E506E516E40C01CF0D1
:1008B00041C01DF04AC01EF04BC01FF04CC020F0DC
:1008C0004DC021F04EC022F04FC023F050C024F0A4
:1008D00051C025F0C4EC04F01CC040F01DC041F034
:1008E000C3EF04F042C0D9FF43C0DAFFDECFF6FF0A
:1008F000DDCFF7FF0800F550250AD8A482EF04F0F9
:1009000084EF04F09BEF04F042C0D9FF43C0DAFF4C
:10091000DE2A000EDD22000E026E250E016E40C0A2
:1009200003F041C004F035EC09F0000E416E010EF9
:10093000406EC3EF04F042C0D9FF43C0DAFFDE2AA5
:10094000000EDD22000E416E000E406EC3EF04F07B
:1009500042C0D9FF43C0DAFFDECFF6FFDDCFF7FF9D
:100960000800F550016E026A40C003F041C004F077
:1009700035EC09F042C0D9FF43C0DAFFDE2A000E91
:10098000DD2295EF04F012001EC036F01FC037F0D4
:1009900020C038F021C039F022C03AF023C03BF02B
:1009A00024C03CF025C03DF03DBED9EF04F0DCEFA3
:1009B00004F0010EDDEF04F0000E346E356A3450A1
:1009C0003510D8B4E6EF04F0E8EF04F0F8EF04F0E7
:1009D0003D1E3C1E3B1E3A1E391E381E371E366C0D
:1009E000000E3722382239223A223B223C223D2275
:1009F00076BEFDEF04F0FFEF04F000EF05F0779214
:100A000076BE0DEF05F0765006E17504D8B00BEF19
:100A100005F00DEF05F013EF05F0000E316E010E3D
:100A2000306E17EF05F075C030F076C031F073C04E
:100A300032F074C033F034503510D8A422EF05F0F2
:100A400024EF05F02BEF05F077A429EF05F02BEF4D
:100A500005F02EEF05F03206D8A03306000E3F6EEB
:100A60001F0E3E6E000E00019F6FB3EF05F03E06B5
:100A7000D8A03F06800E3E24D96E000E3F20DA6ECD
:100A800036C001F037C002F038C003F039C004F0BE
:100A90003AC005F03BC006F03CC007F03DC008F08E
:100AA0000A0E096E000E0A6E000E0B6E000E0C6E22
:100AB000000E0D6E000E0E6E000E0F6E000E106E0C
:100AC000F7EC06F001C026F002C027F003C028F0C2
:100AD00004C029F005C02AF006C02BF007C02CF096
:100AE00008C02DF026C013F028C014F03BEC0BF02A
:100AF0001350300FDF6E3006D8A031063206D8A072
:100B0000330636C001F037C002F038C003F039C0F8
:100B100004F03AC005F03BC006F03CC007F03DC011
:100B200008F00A0E096E000E0A6E000E0B6E000E23
:100B30000C6E000E0D6E000E0E6E000E0F6E000E8F
:100B4000106E33EC06F001C036F002C037F003C07F
:100B500038F004C039F005C03AF006C03BF007C0D9
:100B60003CF008C03DF03FBEBEEF05F03F5008E14D
:100B70003E04D8A0BEEF05F0C0EF05F0F0EF05F0A1
:100B800036503710381039103A103B103C103D10D9
:100B9000D8A4CDEF05F0CFEF05F037EF05F031BE6B
:100BA000DCEF05F0315006E13004D8B0DAEF05F0A3
:100BB000DCEF05F037EF05F033BEE7EF05F033501B
:100BC00008E13204D8A0E7EF05F0E9EF05F0F0EF17
:100BD00005F077B2EEEF05F0F0EF05F037EF05F036
:100BE00034503510D8A4F7EF05F0F9EF05F000EF19
:100BF00006F077A4FEEF05F000EF06F01EEF06F01A
:100C00003E06D8A03F0634503510D8A40AEF06F0AF
:100C10000CEF06F012EF06F0000E2F6E2B0E2E6E6C
:100C200016EF06F0000E2F6E2D0E2E6E800E3E2457
:100C3000D96E000E3F20DA6E2EC0DFFF1CC011F00F
:100C40001DC012F0800E3E24136E000E3F20146E65
:100C500032C015F033C016F09AEC09F011C01CF048
:100C600012C01DF01200000E126E10BE3CEF06F016
:100C70003AEF06F04EEF06F0101E0F1E0E1E0D1E70
:100C80000C1E0B1E0A1E096C000E0A220B220C22DF
:100C90000D220E220F221022010E126E08BE55EFF9
:100CA00006F053EF06F067EF06F0081E071E061E5B
:100CB000051E041E031E021E016C000E02220322EA
:100CC00004220522062207220822010E121A20EE13
:100CD00013F0070EDE6AE806FDE209500A100B1059
:100CE0000C100D100E100F101010D8B47AEF06F083
:100CF0007CEF06F0CEEF06F0010E116E8AEF06F0E3
:100D0000D89009360A360B360C360D360E360F36AD
:100D10001036112A10AE8FEF06F091EF06F080EF3B
:100D200006F0D890133614361536163617361836A0
:100D300019361A360950015C0A5002580B500358F4
:100D40000C5004580D5005580E5006580F500758B7
:100D500010500858D8A0AFEF06F0B1EF06F0C2EF80
:100D600006F00950015E0A50025A0B50035A0C500B
:100D7000045A0D50055A0E50065A0F50075A10507B
:100D8000085A1380D89010320F320E320D320C32C6
:100D90000B320A320932112E91EF06F01250D8B4FC
:100DA000D4EF06F0D6EF06F0E6EF06F01A1E191E95
:100DB000181E171E161E151E141E136C000E14226C
:100DC000152216221722182219221A2213C001F006
:100DD00014C002F015C003F016C004F017C005F0EF
:100DE00018C006F019C007F01AC008F01200000E73
:100DF000126E08BE00EF07F0FEEF06F012EF07F0EC
:100E0000081E071E061E051E041E031E021E016C80
:100E1000000E0222032204220522062207220822B3
:100E2000010E126E10BE19EF07F017EF07F029EF51
:100E300007F0101E0F1E0E1E0D1E0C1E0B1E0A1E8E
:100E4000096C000E0A220B220C220D220E220F2208
:100E5000102209500A100B100C100D100E100F105C
:100E60001010D8B436EF07F038EF07F080EF07F036
:100E7000010E116E46EF07F0D89009360A360B3690
:100E80000C360D360E360F361036112A10AE4BEFDB
:100E900007F04DEF07F03CEF07F00950015C0A50F6
:100EA00002580B5003580C5004580D5005580E5062
:100EB00006580F50075810500858D8A062EF07F096
:100EC00064EF07F074EF07F00950015E0A50025A10
:100ED0000B50035A0C50045A0D50055A0E50065A26
:100EE0000F50075A1050085AD89010320F320E3255
:100EF0000D320C320B320A320932112E4DEF07F04F
:100F00001250D8B486EF07F088EF07F098EF07F09B
:100F1000081E071E061E051E041E031E021E016C6F
:100F2000000E0222032204220522062207220822A2
:100F300001C001F002C002F003C003F004C004F0DD
:100F400005C005F006C006F007C007F008C008F0AD
:100F50001200000E116E000E106E000E0F6E000ECD
:100F60000E6EB5EF07F0084A092A08C0F6FF09C05F
:100F7000F7FF0800F550200AD8B4C1EF07F0C3EF1F
:100F800007F0B3EF07F0F70E0A6EFF0E0B6E08C006
:100F9000F6FF09C0F7FF0800F5500C6E0D6A0A5005
:100FA0000C260B500D220D5009E1050E0C5CD8A04B
:100FB000DCEF07F0DEEF07F0B3EF07F0E8EF07F044
:100FC000000E0F6E010E0E6E084A092A1DEF08F082
:100FD00008C0F6FF09C0F7FF0800F5500A6E0B6A5B
:100FE0000B50000AD8B4F7EF07F01DEF08F00A50D5
:100FF0002B0AD8B4E4EF07F0060AD8B4E0EF07F004
:101000001DEF08F010C001F011C002F0000E046ED8
:101010000A0E036E92EC0BF008C0F6FF09C0F7FF52
:101020000800F550015E000E025A300E0124106EC9
:10103000000E0220116EE4EF07F0D00E0A6EFF0ED4
:101040000B6E08C0F6FF09C0F7FF0800F5500C6EE4
:101050000D6A0A500C260B500D220D5009E10A0EA4
:101060000C5CD8A036EF08F038EF08F002EF08F07B
:101070000E500F10D8A43FEF08F041EF08F04FEFEB
:1010800008F010C00AF011C00BF00A1E0B1E0A4A2D
:101090000B2A0AC008F00BC009F053EF08F010C08B
:1010A00008F011C009F01200046E100E016E045019
:1010B000B6EC0BF0036E033A83500318EF0B0318E2
:1010C000836E200E016E0450B6EC0BF0036E033AF3
:1010D000034683500318DF0B0318836E400E016E26
:1010E0000450B6EC0BF0036E033A034603468350FC
:1010F0000318BF0B0318836E800E016E0450B6EC0C
:101100000BF0036E03320332835003187F0B031876
:10111000836E84848494420EE82EFED700D0010EA4
:10112000016E0450B6EC0BF0036E033A83500318C3
:10113000EF0B0318836E020E016E0450B6EC0BF039
:10114000036E033A034683500318DF0B0318836EC4
:10115000040E016E0450B6EC0BF0036E033A034626
:10116000034683500318BF0B0318836E080E016EED
:101170000450B6EC0BF0036E0332033283500318B5
:101180007F0B0318836E848484941200DAEC0BF0D6
:10119000D5EC0BF04BEC0AF081A0D1EF08F0D3EFC7
:1011A00008F014EF09F0020E076E120E086E060E1C
:1011B000096E010EFBEC09F0A00E5C6E000E5D6E78
:1011C000340E5E6E060E5F6E79C060F07AC061F01C
:1011D000F2EC0AF0080E076EA00E086E000E096E03
:1011E000020EFBEC09F0794A7A2A7ABE01EF09F087
:1011F0007A5009E1100E795CD8A001EF09F003EFF5
:1012000009F007EF09F0000E7A6E000E796E0B0EF2
:10121000706E260E6F6E5E0EE82EFED76F2EFCD718
:10122000702EFAD7CCEF08F0000E7A6E000E796EB1
:10123000020E076E230E086E060E096E010EFBEC01
:1012400009F0010E076E010E086E060E096E020E01
:10125000FBEC09F0340E6F6EF20EE82EFED76F2E07
:10126000FCD7CCEF08F000EF00F003500410D8B426
:101270003CEF09F03EEF09F047EF09F0035004108E
:10128000D8A445EF09F047EF09F04CEF09F0015001
:10129000DFEC0BF099EF09F020EE09F00350D926AE
:1012A0000450DA22DE50DE10D8B459EF09F05BEFBB
:1012B00009F076EF09F020EE09F00350D92604502A
:1012C000DA2210EE03F00350E1260450E222DE5051
:1012D000E65CE650800A096EDE50800A0958D8B0F4
:1012E00074EF09F076EF09F099EF09F020EE03F0C2
:1012F0000350D9260450DA22DECF05F0DDCF06F008
:1013000003C0D9FF04C0DAFFDECF07F0DDCF08F05D
:1013100005500724D96E06500820DA6E01C0DFFFA1
:1013200020EE03F00350D9260450DA22DE2A000E04
:10133000DD22120077A09FEF09F0A1EF09F0ABEFDB
:1013400009F013C00AF014C00BF011C00CF012C069
:101350000DF019EC0BF016BEB0EF09F0B2EF09F08A
:10136000B8EF09F015C01AF016C01BF0BCEF09F079
:10137000000E1B6E000E1A6E000E196E000E186E17
:10138000CEEF09F0000E026E200E016E11C003F0C8
:1013900012C004F035EC09F0184A192A1A50185CEA
:1013A0001950800A176E1B50800A1758D8A0DBEF1F
:1013B00009F0DDEF09F0C2EF09F077B0E2EF09F0D4
:1013C000E4EF09F0EEEF09F013C00AF014C00BF0DF
:1013D00011C00CF012C00DF019EC0BF013C001F0AD
:1013E00014C002F077EC0BF01A500124116E1B5060
:1013F0000220126E12000B6E0B04D8A402EF0AF04A
:1014000004EF0AF009EF0AF007507F0F0A6E15EF9C
:101410000AF0020E0B18D8A410EF0AF012EF0AF02F
:1014200015EF0AF00750BF0F0A6E0AC005F0000E54
:10143000C6EC0BF032EF0AF008C0F6FF09C0F7FF68
:10144000F86A050EF76403D00800F55005D0F6CF12
:10145000E1FFF7CFE2FFE750056E010EC6EC0BF09F
:10146000084A092A08C0F6FF09C0F7FFF86A050E06
:10147000F76403D00800F55005D0F6CFE1FFF7CFB1
:10148000E2FFE7500009D8A448EF0AF04AEF0AF05B
:101490001CEF0AF01200000E956E969496929690AC
:1014A000000E836E849084928494270E056EF50E50
:1014B000E82EFED7052EFCD700F0000E066E300E8B
:1014C00054EC08F00D0E056EFC0EE82EFED7052E2E
:1014D000FCD7062A020E066470EF0AF072EF0AF0DB
:1014E0005FEF0AF0020E54EC08F01A0EE82EFED759
:1014F00000D0280E54EC08F01A0EE82EFED700D0CB
:10150000010E54EC08F0060E056E300EE82EFED7E4
:10151000052EFCD700D00C0E54EC08F01A0EE82E65
:10152000FED700D0060E54EC08F01A0EE82EFED7B7
:1015300000D0120056C05AF057C05BF0000E726E19
:10154000000E716EB6EF0AF054C040F055C041F085
:101550005A0E426E000E436E58C044F059C045F01A
:101560001DEC03F040507126415072225AC0F6FF24
:101570005BC0F7FF0800F5500009D8A4C2EF0AF0DD
:10158000C4EF0AF0A4EF0AF071C054F072C055F035
:101590001200010E076E200E01180210D8B4D3EF0E
:1015A0000AF0D5EF0AF0EEEF0AF0F70E036EFF0E29
:1015B000046E01C005F002C006F003500526045079
:1015C0000622065009E1050E055CD8A0EAEF0AF0F4
:1015D000ECEF0AF0EEEF0AF0000E076E07C001F024
:1015E000026A1200600E626E000E636E5CC064F0F0
:1015F0005DC065F0000E686E000E676E000E6E6EC8
:10160000000E6D6E640E546E000E556E5EC056F088
:101610005FC057F0620E586E000E596E9AEC0AF0D9
:1016200067505C24D96E68505D20DA6E000EDF6E64
:101630001200000E106E000E0F6E2AEF0BF00EC09F
:1016400001F0026A0CC003F00DC004F035EC09F0A3
:101650000F4A102A0F500A24D96E10500B20DA6E50
:10166000DF500E6E0E50D8A438EF0BF03AEF0BF0AF
:101670001FEF0BF0120014BE48EF0BF0145006E100
:101680001304D8B046EF0BF048EF0BF056EF0BF019
:1016900013C015F014C016F0151E161E154A162A92
:1016A00015C013F016C014F05AEF0BF013C013F06E
:1016B00014C014F01200D00E036EFF0E046E01C0B1
:1016C00005F002C006F0035005260450062206501D
:1016D0000AE10A0E055CD8A070EF0BF073EF0BF077
:1016E000010E74EF0BF0000E016E026A120001C0D1
:1016F00003F002C004F07FEF0BF0014A022A01C0A0
:10170000D9FF02C0DAFFDF50D8A489EF0BF08BEFCE
:101710000BF07DEF0BF00350015C016E045002589A
:10172000026E120001500302F3CF05F0F4CF06F071
:1017300001500402F350062602500302F35006261D
:1017400005C001F006C002F0120000EE80F0300E7D
:10175000EE6AE806FDE100EE71F00A0EEE6AE806B8
:10176000FDE1000EF86E0001C6EF08F0026E0250B7
:1017700001140009D8B4BFEF0BF0C1EF0BF0C4EFB8
:101780000BF0010EC5EF0BF0000E1200066E06B056
:1017900002D0849001D08480420EE82EFED700D083
:1017A0008494055054EC08F01200010E936E0F0E55
:1017B000C16E1200720ED36E000E9B6E12001200EC
:020000040020DA
:08000000FFFFFFFFFFFFFFFF00
:020000040030CA
:0E000000FF02191EFF8181FF0FC00FE00F40AD
:00000001FF
