:04000000F5EF0AF01E
:10060000002020202020202020202020202020200A
:10061000200020202020434F554E5445523A2020A0
:1006200020200041554C412031202D204C43443A9C
:0906300020200025303264000096
:10063A001EC034F01FC035F020C036F021C037F09C
:10064A0022C038F023C039F024C03AF025C03BF06C
:10065A003BBE32EF03F035EF03F0010E36EF03F045
:10066A00000E3E6E3E50D8B43DEF03F03FEF03F06C
:10067A004FEF03F03B1E3A1E391E381E371E361E38
:10068A00351E346C000E35223622372238223922A2
:10069A003A223B2274BE54EF03F056EF03F057EFB1
:1006AA0003F0779274BE64EF03F0745006E17304AA
:1006BA00D8B062EF03F064EF03F06AEF03F0000EC4
:1006CA00316E010E306E6EEF03F073C030F074C0FD
:1006DA0031F071C032F072C033F03E50D8B478EFC6
:1006EA0003F07AEF03F091EF03F03206D8A0330655
:1006FA003E50D8A483EF03F085EF03F08BEF03F0AD
:10070A00000E2F6E2B0E2E6E8FEF03F0000E2F6E43
:10071A002D0E2E6E2EC03EF0000E3D6E1F0E3C6E4C
:10072A00000E00019F6F16EF04F03C06D8A03D06AC
:10073A00800E3C24D96E000E3D20DA6E34C001F0E2
:10074A0035C002F036C003F037C004F038C005F0F7
:10075A0039C006F03AC007F03BC008F00A0E096E2D
:10076A00000E0A6E000E0B6E000E0C6E000E0D6E61
:10077A00000E0E6E000E0F6E000E106E88EC06F064
:10078A0001C026F002C027F003C028F004C029F0F7
:10079A0005C02AF006C02BF007C02CF008C02DF0C7
:1007AA0026C013F027C014F0ACEC0AF01350300F37
:1007BA00DF6E3006D8A031063206D8A0330634C020
:1007CA0001F035C002F036C003F037C004F038C07B
:1007DA0005F039C006F03AC007F03BC008F00A0E2F
:1007EA00096E000E0A6E000E0B6E000E0C6E000EE5
:1007FA000D6E000E0E6E000E0F6E000E106EC4EC23
:10080A0005F001C034F002C035F003C036F004C070
:10081A0037F005C038F006C039F007C03AF008C012
:10082A003BF03DBE21EF04F03D5008E13C04D8A066
:10083A0021EF04F023EF04F053EF04F034503510A5
:10084A0036103710381039103A103B10D8A430EF50
:10085A0004F032EF04F09AEF03F031BE3FEF04F0F8
:10086A00315006E13004D8B03DEF04F03FEF04F018
:10087A009AEF03F033BE4AEF04F0335008E1320432
:10088A00D8A04AEF04F04CEF04F053EF04F077B22B
:10089A0051EF04F053EF04F09AEF03F03E50D8B44E
:1008AA0059EF04F05BEF04F066EF04F03C06D8A0C1
:1008BA003D06800E3C24D96E000E3D20DA6E3EC005
:1008CA00DFFF1CC011F01DC012F0800E3C24136E15
:1008DA00000E3D20146E32C015F033C016F025EC20
:1008EA0009F0120041C0D9FF42C0DAFFDECFF6FF9D
:1008FA00DDCFF7FF0800F550250AD8A487EF04F0EA
:10090A0089EF04F0AFEF05F041C0D9FF42C0DAFF2A
:10091A00DE2A000EDD22000E726E000E716E71C0AC
:10092A0077F073687468000E516E000E506EC8EF4F
:10093A0004F0778241C0D9FF42C0DAFFDE2A000EF6
:10094A00DD22C8EF04F0000E516E010E506EC8EFA2
:10095A0004F041C0D9FF42C0DAFFDECFF6FFDDCF97
:10096A00F7FF0800F550456E466A4650000AD8B4AB
:10097A00C1EF04F0A8EF04F04550300AD8B49EEF56
:10098A0004F0A8EF04F050505110D8B4CFEF04F09F
:10099A00D1EF04F0AEEF04F041C0D9FF42C0DAFF54
:1009AA00DECFF6FFDDCFF7FF0800F5502A0AD8A4FC
:1009BA00E1EF04F0E3EF04F00CEF05F041C0D9FFDA
:1009CA0042C0DAFFDE2A000EDD2243C0D9FF44C04E
:1009DA00DAFFDFCF45F0020EDE26DFCF46F0000E4B
:1009EA00DD2245C0D9FF46C0DAFFDECF71F0DDCF88
:1009FA0072F072BE05EF05F003EF05F03FEF05F068
:100A0A007780716C721ED8B0722A3FEF05F041C030
:100A1A00D9FF42C0DAFFDECF07F0DDCF08F03AECAB
:100A2A0007F007C071F008C072F023EF05F041C06B
:100A3A00D9FF42C0DAFFDE2A000EDD2241C0D9FF0B
:100A4A0042C0DAFFDECFF6FFDDCFF7FF0800F5CFB1
:100A5A0045F0D00E4524466E476AFF0E472247509E
:100A6A0009E10A0E465CD8A03DEF05F03FEF05F01C
:100A7A001CEF05F041C0D9FF42C0DAFFDECF52F0C9
:100A8A00DDCF53F052C0F6FF53C0F7FF0800F55010
:100A9A00640AD8B453EF05F055EF05F063EF05F09B
:100AAA0052C0F6FF53C0F7FF0800F550690AD8A4F0
:100ABA0061EF05F063EF05F0A6EF05F043C0D9FF3B
:100ACA0044C0DAFFDFCF45F0020EDE26DFCF46F064
:100ADA00000EDD2245C0D9FF46C0DAFFDECF48F05E
:100AEA00DDCF49F0000E49BEFF0E4A6E4B6E4C6ECA
:100AFA004D6E4E6E4F6E010E5224456E000E5320FF
:100B0A00466E41C0D9FF42C0DAFF45C0DEFF46C08B
:100B1A00DDFF3FC01CF040C01DF048C01EF049C0B8
:100B2A001FF04AC020F04BC021F04CC022F04DC04B
:100B3A0023F04EC024F04FC025F01DEC03F0C3EFA4
:100B4A0005F041C0D9FF42C0DAFFDE2A000EDD22DD
:100B5A00C3EF05F041C0D9FF42C0DAFFDECFF6FF8E
:100B6A00DDCFF7FF0800F550016E026A3FC003F0BF
:100B7A0040C004F0C0EC08F0A6EF05F01200000E29
:100B8A00126E10BECDEF05F0CBEF05F0DFEF05F0EA
:100B9A00101E0F1E0E1E0D1E0C1E0B1E0A1E096CA9
:100BAA00000E0A220B220C220D220E220F221022E4
:100BBA00010E126E08BEE6EF05F0E4EF05F0F8EF5D
:100BCA0005F0081E071E061E051E041E031E021E31
:100BDA00016C000E022203220422052206220722A9
:100BEA000822010E121A20EE13F0070EDE6AE8063A
:100BFA00FDE209500A100B100C100D100E100F1008
:100C0A001010D8B40BEF06F00DEF06F05FEF06F008
:100C1A00010E116E1BEF06F0D89009360A360B3614
:100C2A000C360D360E360F361036112A10AE20EF5E
:100C3A0006F022EF06F011EF06F0D89013361436BC
:100C4A00153616361736183619361A360950015C13
:100C5A000A5002580B5003580C5004580D500558AE
:100C6A000E5006580F50075810500858D8A040EF99
:100C7A0006F042EF06F053EF06F00950015E0A5003
:100C8A00025A0B50035A0C50045A0D50055A0E5072
:100C9A00065A0F50075A1050085A1380D89010322B
:100CAA000F320E320D320C320B320A320932112E49
:100CBA0022EF06F01250D8B465EF06F067EF06F09F
:100CCA0077EF06F01A1E191E181E171E161E151E7D
:100CDA00141E136C000E1422152216221722182233
:100CEA0019221A2213C001F014C002F015C003F031
:100CFA0016C004F017C005F018C006F019C007F0B6
:100D0A001AC008F01200000E126E08BE91EF06F02B
:100D1A008FEF06F0A3EF06F0081E071E061E051E3B
:100D2A00041E031E021E016C000E0222032204226C
:100D3A000522062207220822010E126E10BEAAEF11
:100D4A0006F0A8EF06F0BAEF06F0101E0F1E0E1EF0
:100D5A000D1E0C1E0B1E0A1E096C000E0A220B2207
:100D6A000C220D220E220F22102209500A100B10FB
:100D7A000C100D100E100F101010D8B4C7EF06F09B
:100D8A00C9EF06F011EF07F0010E116ED7EF06F06A
:100D9A00D89009360A360B360C360D360E360F3613
:100DAA001036112A10AEDCEF06F0DEEF06F0CDEFBA
:100DBA0006F00950015C0A5002580B5003580C50B7
:100DCA0004580D5005580E5006580F500758105029
:100DDA000858D8A0F3EF06F0F5EF06F005EF07F094
:100DEA000950015E0A50025A0B50035A0C50045A19
:100DFA000D50055A0E50065A0F50075A1050085AED
:100E0A00D89010320F320E320D320C320B320A32B7
:100E1A000932112EDEEF06F01250D8B417EF07F0A0
:100E2A0019EF07F029EF07F0081E071E061E051E18
:100E3A00041E031E021E016C000E0222032204225B
:100E4A00052206220722082201C001F002C002F090
:100E5A0003C003F004C004F005C005F006C006F0A4
:100E6A0007C007F008C008F01200000E0F6E000E4F
:100E7A000E6E000E0D6E000E0C6E46EF07F0074A5E
:100E8A00082A07C0F6FF08C0F7FF0800F550200A35
:100E9A00D8B452EF07F054EF07F044EF07F007C059
:100EAA00F6FF08C0F7FF0800F5CF09F0F70E09248E
:100EBA000A6E0B6AFF0E0B220B5009E1050E0A5C43
:100ECA00D8A06AEF07F06CEF07F044EF07F076EF6F
:100EDA0007F0000E0D6E010E0C6E074A082AABEFE2
:100EEA0007F007C0F6FF08C0F7FF0800F550096EC3
:100EFA000A6A0A50000AD8B485EF07F0ABEF07F088
:100F0A0009502B0AD8B472EF07F0060AD8B46EEF6C
:100F1A0007F0ABEF07F00EC001F00FC002F0000EB1
:100F2A00046E0A0E036EE2EC0AF007C0F6FF08C070
:100F3A00F7FF0800F550015E000E025A300E012438
:100F4A000E6E000E02200F6E72EF07F007C0F6FF5A
:100F5A0008C0F7FF0800F5CF09F0D00E09240A6E81
:100F6A000B6AFF0E0B220B5009E10A0E0A5CD8A08D
:100F7A00C1EF07F0C3EF07F090EF07F00C500D1028
:100F8A00D8A4CAEF07F0CCEF07F0DAEF07F00EC0EB
:100F9A0009F00FC00AF0091E0A1E094A0A2A09C0E6
:100FAA0007F00AC008F0DEEF07F00EC007F00FC026
:100FBA0008F01200046E100E016E045006EC0BF0DD
:100FCA00036E033A83500318EF0B0318836E200E47
:100FDA00016E045006EC0BF0036E033A034683508D
:100FEA000318DF0B0318836E400E016E045006ECE3
:100FFA000BF0036E033A0346034683500318BF0BF4
:10100A000318836E800E016E045006EC0BF0036E1B
:10101A0003320332835003187F0B0318836E8484D0
:10102A008494420EE82EFED700D0010E016E0450C1
:10103A0006EC0BF0036E033A83500318EF0B031808
:10104A00836E020E016E045006EC0BF0036E033A37
:10105A00034683500318DF0B0318836E040E016ED8
:10106A00045006EC0BF0036E033A03460346835022
:10107A000318BF0B0318836E080E016E045006ECAA
:10108A000BF0036E03320332835003187F0B0318ED
:10109A00836E8484849412002AEC0BF025EC0BF006
:1010AA00CAEC09F081A05CEF08F05EEF08F09FEF50
:1010BA0008F0754A762A020E076E120E086E060EA0
:1010CA00096E010E7AEC09F0A00E5C6E000E5D6EE0
:1010DA00330E5E6E060E5F6E75C060F076C061F00C
:1010EA0019EC0AF0080E076EA00E086E000E096EC3
:1010FA00020E7AEC09F076BE8CEF08F0765009E120
:10110A000F0E755CD8A08CEF08F08EEF08F092EF06
:10111A0008F0000E766E000E756E0B0E706E260EBF
:10112A006F6E5E0EE82EFED76F2EFCD7702EFAD7A2
:10113A0057EF08F0000E766E000E756E030E076EFE
:10114A00230E086E060E096E010E7AEC09F0010EE6
:10115A00076E010E086E060E096E020E7AEC09F091
:10116A00340E6F6EF20EE82EFED76F2EFCD757EFB5
:10117A0008F000EF00F003500410D8B4C7EF08F0ED
:10118A00C9EF08F0D2EF08F003500410D8A4D0EF4A
:10119A0008F0D2EF08F0D7EF08F001502FEC0BF06F
:1011AA0024EF09F020EE09F00350D9260450DA2280
:1011BA00DE50DE10D8B4E4EF08F0E6EF08F001EFF5
:1011CA0009F020EE09F00350D9260450DA2210EE75
:1011DA0003F00350E1260450E222DE50E65CE650BA
:1011EA00800A096EDE50800A0958D8B0FFEF08F06D
:1011FA0001EF09F024EF09F020EE03F00350D9269D
:10120A000450DA22DECF05F0DDCF06F003C0D9FFA5
:10121A0004C0DAFFDECF07F0DDCF08F0055007245F
:10122A00D96E06500820DA6E01C0DFFF20EE03F007
:10123A000350D9260450DA22DE2A000EDD221200DB
:10124A0077A02AEF09F02CEF09F036EF09F013C066
:10125A000AF014C00BF011C00CF012C00DF08AECA9
:10126A000AF016BE3BEF09F03DEF09F043EF09F033
:10127A0015C01AF016C01BF047EF09F0000E1B6EDE
:10128A00000E1A6E000E196E000E186E59EF09F054
:10129A00000E026E200E016E11C003F012C004F09F
:1012AA00C0EC08F0184A192A1A50185C1950800A1A
:1012BA00176E1B50800A1758D8A066EF09F068EF1E
:1012CA0009F04DEF09F077B06DEF09F06FEF09F013
:1012DA0079EF09F013C00AF014C00BF011C00CF03A
:1012EA0012C00DF08AEC0AF012000B6E0B04D8A49F
:1012FA0081EF09F083EF09F088EF09F007507F0FBB
:10130A000A6E94EF09F0020E0B18D8A48FEF09F0B9
:10131A0091EF09F094EF09F00750BF0F0A6E0AC067
:10132A0005F0000E16EC0BF0B1EF09F008C0F6FF5D
:10133A0009C0F7FFF86A050EF76403D00800F550F4
:10134A0005D0F6CFE1FFF7CFE2FFE750056E010EB9
:10135A0016EC0BF0084A092A08C0F6FF09C0F7FF85
:10136A00F86A050EF76403D00800F55005D0F6CFE9
:10137A00E1FFF7CFE2FFE7500009D8A4C7EF09F071
:10138A00C9EF09F09BEF09F01200000E956E9694D2
:10139A0096929690000E836E849084928494270E7F
:1013AA00056EF50EE82EFED7052EFCD700F0000ECE
:1013BA00066E300EDFEC07F00D0E056EFC0EE82E01
:1013CA00FED7052EFCD7062A020E0664EFEF09F0B7
:1013DA00F1EF09F0DEEF09F0020EDFEC07F01A0E6A
:1013EA00E82EFED700D0280EDFEC07F01A0EE82E02
:1013FA00FED700D0010EDFEC07F0060E056E300EA8
:10140A00E82EFED7052EFCD700D00C0EDFEC07F035
:10141A001A0EE82EFED700D0060EDFEC07F01A0EE1
:10142A00E82EFED700D01200600E626E000E636EC8
:10143A005CC064F05DC065F0000E686E000E676EF9
:10144A00000E6E6E000E6D6E640E546E000E556EBA
:10145A005EC056F05FC057F0620E586E000E596EAD
:10146A0040EC0AF067505C24D96E68505D20DA6E51
:10147A00000EDF6E120056C05AF057C05BF054EFF0
:10148A000AF054C03FF055C040F05A0E416E000EAB
:10149A00426E58C043F059C044F077EC04F05AC089
:1014AA00F6FF5BC0F7FF0800F5500009D8A460EF0B
:1014BA000AF062EF0AF046EF0AF0000E556E000ECF
:1014CA00546E1200010E056E200E01180210D8B4D7
:1014DA0071EF0AF073EF0AF086EF0AF0F70E0124B3
:1014EA00036EFF0E0220046E045009E1050E035C30
:1014FA00D8A082EF0AF084EF0AF086EF0AF0000E15
:10150A00056E05C001F0026A1200000E106E000E90
:10151A000F6E9BEF0AF00EC001F0026A0CC003F0D6
:10152A000DC004F0C0EC08F00F4A102A0F500A242C
:10153A00D96E10500B20DA6EDF500E6E0E50D8A402
:10154A00A9EF0AF0ABEF0AF090EF0AF0120014BE0E
:10155A00B9EF0AF0145006E11304D8B0B7EF0AF055
:10156A00B9EF0AF0C7EF0AF013C015F014C016F06D
:10157A00151E161E154A162A15C013F016C014F0A9
:10158A00CBEF0AF013C013F014C014F01200D00EFF
:10159A000124036EFF0E0220046E04500AE10A0EB3
:1015AA00035CD8A0DBEF0AF0DEEF0AF0010EDFEFF2
:1015BA000AF0000E016E026A120001500302F3CF14
:1015CA0005F0F4CF06F001500402F350062602504B
:1015DA000302F350062605C001F006C002F012000D
:1015EA0000EE80F0300EEE6AE806FDE100EE71F0E2
:1015FA00070EEE6AE806FDE1000EF86E000151EFF3
:10160A0008F0026E025001140009D8B40FEF0BF073
:10161A0011EF0BF014EF0BF0010E15EF0BF0000EAB
:10162A001200066E06B002D0849001D08480420E69
:10163A00E82EFED700D084940550DFEC07F01200A4
:10164A00010E936E0F0EC16E1200720ED36E000E53
:06165A009B6E120012005D
:020000040020DA
:08000000FFFFFFFFFFFFFFFF00
:020000040030CA
:0E000000FF02191EFF8181FF0FC00FE00F40AD
:00000001FF
