:0400000052EF04F0C7
:100600000050494331384634353230004C434420A1
:100610003420424954530000046E100E016E045001
:1006200033EC04F0036E033A83500318EF0B031806
:10063000836E200E016E045033EC04F0036E033A17
:10064000034683500318DF0B0318836E400E016EC0
:10065000045033EC04F0036E033A03460346835020
:100660000318BF0B0318836E800E016E045033EC29
:1006700004F0036E03320332835003187F0B031818
:10068000836E84848494420EE82EFED700D0010E3F
:10069000016E045033EC04F0036E033A83500318E8
:1006A000EF0B0318836E020E016E045033EC04F05E
:1006B000036E033A034683500318DF0B0318836E5F
:1006C000040E016E045033EC04F0036E033A03464B
:1006D000034683500318BF0B0318836E080E016E88
:1006E000045033EC04F0036E0332033283500318DA
:1006F0007F0B0318836E848484941200000E956E21
:10070000969496929690000E836E84908492849430
:10071000270E056EF50EE82EFED7052EFCD700F04D
:10072000000E066E300E0CEC03F00D0E056EFC0E86
:10073000E82EFED7052EFCD7062A020E0664A3EF8C
:1007400003F0A5EF03F092EF03F0020E0CEC03F0C0
:100750001A0EE82EFED700D0280E0CEC03F01A0E6D
:10076000E82EFED700D0010E0CEC03F0060E056E4D
:10077000300EE82EFED7052EFCD700D00C0E0CEC68
:1007800003F01A0EE82EFED700D0060E0CEC03F094
:100790001A0EE82EFED700D012000B6E0B04D8A460
:1007A000D4EF03F0D6EF03F0DBEF03F007507F0F39
:1007B0000A6EE7EF03F0020E0B18D8A4E2EF03F085
:1007C000E4EF03F0E7EF03F00750BF0F0A6E0AC033
:1007D00005F0000E43EC04F0FAEF03F008C0F6FF5A
:1007E00009C0F7FF0800F5CF05F0010E43EC04F057
:1007F000084A092A08C0F6FF09C0F7FF0800F550AB
:100800000009D8A406EF04F008EF04F0EEEF03F0BF
:100810001200000ED36E000E9B6E0F0EC16E7EECAA
:1008200003F0040E076E010E086E060E096E010E2F
:10083000CDEC03F0040E076E0C0E086E060E096E6A
:10084000020ECDEC03F0020E0D6E040E0C6EBA0E0D
:10085000E82EFED70C2EFCD70D2EFAD700D011EFC4
:1008600004F000EF00F0026E025001140009D8B449
:100870003CEF04F03EEF04F041EF04F0010E42EFD4
:1008800004F0000E1200066E06B002D0849001D073
:100890008480420EE82EFED700D0849405500CECE4
:1008A00003F01200000EF86E060EF76E000109EF5D
:0208B00004F052
:020000040020DA
:08000000FFFFFFFFFFFFFFFF00
:020000040030CA
:0E000000FF02191EFF8381FF0FC00FE00F40AB
:00000001FF
