:04000000AFEF21F04D
:10060000002020202020202020202020202020200A
:100610000025302E31662563432020202020200035
:1006200025302E31662563202020202020005465AF
:100630006D703A202020200050657263656E743A18
:10064000002046414E20323A0046414E20313A00C9
:100650002530316420005245533A00253031640082
:10066000494E46004E414E00696E66006E616E0056
:100670006C660000000E0001956F000E946F57C06D
:10068000A6F058C0A7F059C0A8F05AC0A9F0A9BF59
:100690004EEF03F04CEF03F064EF03F0000E956FA4
:1006A000010E946FA6C001F0A7C002F0A8C003F02D
:1006B000A9C004F042EC21F001C0A6F002C0A7F0EE
:1006C00003C0A8F004C0A9F0000E0001AD6F000E39
:1006D000AC6F79C098F07AC099F094519511D8A474
:1006E00074EF03F076EF03F07DEF03F07DA47BEF72
:1006F00003F07DEF03F097EF03F094519511D8A428
:1007000084EF03F086EF03F08CEF03F0000E816FAF
:100710002B0E806F90EF03F0000E816F2D0E806F17
:1007200080C000F1AC4BAD2B9807D8A09907A6C0AC
:1007300001F0A7C002F0A8C003F0A9C004F063EC68
:100740001AF001040210D8A4A8EF03F0AAEF03F0F6
:10075000F5EF03F0BF0E5C6EFF0E5D6E5B505E6EDC
:100760005F6A5C505E265D505F225F5007E11A0EA3
:100770005E5CD8B0BEEF03F0C0EF03F0CFEF03F044
:10078000000E0001AC25016E010EAD21026E600E5F
:10079000036E060E046EFFEC1FF0DCEF03F0000E9C
:1007A0000001AC25016E010EAD21026E680E036ED4
:1007B000060E046EFFEC1FF00001FD0E9827FF0EE1
:1007C000992355C011F056C012F0000E136E010EA1
:1007D000146E98C015F099C016F0D0EC1DF011C041
:1007E00055F012C056F041EF09F0A6C001F0A7C0C5
:1007F00002F0A8C003F0A9C004F063EC1AF00150A5
:100800000210D8A406EF04F008EF04F03CEF04F067
:10081000BF0E5C6EFF0E5D6E5B505E6E5F6A5C507D
:100820005E265D505F225F5007E11A0E5E5CD8B015
:100830001CEF04F01EEF04F02DEF04F0000E000199
:10084000AC25016E010EAD21026E640E036E060E24
:10085000046EFFEC1FF0DCEF03F0000E0001AC258E
:10086000016E010EAD21026E6C0E036E060E046E5B
:10087000FFEC1FF0DCEF03F0000E0001AE6F000E86
:10088000AF6F800EB06F3F0EB16F000EAB6F000EFA
:10089000AA6FA6C001F0A7C002F0A8C003F0A9C0CB
:1008A00004F0000E056E000E066E000E076E000EC0
:1008B000086E89EC1EF0D8B060EF04F062EF04F02F
:1008C000E5EF04F081EF04F0AEC00FF0AFC010F020
:1008D000B0C011F0B1C012F0000E136E000E146E15
:1008E000200E156E410E166E24EC0FF00FC0AEF008
:1008F00010C0AFF011C0B0F012C0B1F00001AA4BAF
:10090000AB2BA6C028F0A7C029F0A8C02AF0A9C028
:100910002BF0000E136E000E146E200E156E410E9D
:10092000166EAEC00FF0AFC010F0B0C011F0B1C085
:1009300012F024EC0FF00FC02CF010C02DF011C0FD
:100940002EF012C02FF0E1EC19F0D8B0AAEF04F0AD
:10095000ACEF04F064EF04F0CCEF04F0AEC028F08C
:10096000AFC029F0B0C02AF0B1C02BF0000E2C6E41
:10097000000E2D6E200E2E6E410E2F6E39EC11F0F2
:1009800028C0AEF029C0AFF02AC0B0F02BC0B1F043
:100990000001AA07D8A0AB07A6C028F0A7C029F07D
:1009A000A8C02AF0A9C02BF0AEC02CF0AFC02DF02B
:1009B000B0C02EF0B1C02FF0E1EC19F0D8A0E3EFF9
:1009C00004F0E5EF04F0AEEF04F05BC007F0086A56
:1009D0007FEC20F0075000019B6F9BC09AF0670EE0
:1009E0009B19D8A4F6EF04F0F8EF04F01EEF05F021
:1009F0007B507C10D8A4FFEF04F001EF05F005EF69
:100A000005F0000E7C6E010E7B6E7CBE12EF05F0D1
:100A10007C5006E17B04D8B010EF05F012EF05F032
:100A200018EF05F0000E976F060E966F27EF05F092
:100A30007BC096F07CC097F027EF05F07CBE23EFDB
:100A400005F025EF05F012EF05F018EF05F0670E41
:100A50009B19D8A42EEF05F030EF05F05FEF05F0FD
:100A6000ABAF3EEF05F0FC0EAA5DFF0EAB59D8A070
:100A70003CEF05F03EEF05F05DEF05F0FF0E5C6E1C
:100A8000FF0E5D6E96C05EF097C05FF05C505E2614
:100A90005D505F22AA515E5C5F50800A606EAB5170
:100AA000800A6058D8A057EF05F059EF05F05DEFC8
:100AB00005F0660E9A6F5FEF05F0650E9A6F96C0AF
:100AC0008CF097C08DF0670E9B19D8A46AEF05F0E3
:100AD0006CEF05F07CEF05F0660E9A19D8A473EF61
:100AE00005F075EF05F07EEF05F0ABBF7CEF05F08C
:100AF0007AEF05F07EEF05F08C4B8D2B660E9A1980
:100B0000D8A485EF05F087EF05F0A7EF05F0ABBFA0
:100B10008EEF05F08CEF05F09AEF05F0000EAE6F4A
:100B2000000EAF6F800EB06F3F0EB16F000EAB6F57
:100B3000000EAA6F670E9B19D8B4A1EF05F0A3EFC2
:100B400005F0A7EF05F0AA518C27AB518D23000EBD
:100B5000A56F000EA46FA6C09CF0A7C09DF0A8C012
:100B60009EF0A9C09FF0AEC08EF0AFC08FF0B0C0B5
:100B700090F0B1C091F038EF06F09CC028F09DC015
:100B800029F09EC02AF09FC02BF0AEC02CF0AFC061
:100B90002DF0B0C02EF0B1C02FF039EC11F028C00C
:100BA00041F029C042F02AC043F02BC044F075EC5C
:100BB00014F041C0A0F042C0A1F043C0A2F044C074
:100BC000A3F0A0C001F0A1C002F0A2C003F0A3C036
:100BD00004F05EEC19F001C092F002C093F09CC0EA
:100BE00028F09DC029F09EC02AF09FC02BF0AEC017
:100BF00013F0AFC014F0B0C015F0B1C016F0A0C033
:100C00000FF0A1C010F0A2C011F0A3C012F024ECAC
:100C10000FF00FC02CF010C02DF011C02EF012C03C
:100C20002FF0A2EC20F028C09CF029C09DF02AC033
:100C30009EF02BC09FF0AEC028F0AFC029F0B0C02E
:100C40002AF0B1C02BF0000E2C6E000E2D6E200E7F
:100C50002E6E410E2F6E39EC11F028C0AEF029C077
:100C6000AFF02AC0B0F02BC0B1F00001A44BA52B0F
:100C70008C51A45DA551800A5C6E8D51800A5C5830
:100C8000D8A045EF06F047EF06F0BDEF05F0AEC087
:100C90000FF0AFC010F0B0C011F0B1C012F0000EF4
:100CA000136E000E146EA00E156E400E166E24EC20
:100CB0000FF00FC0A0F010C0A1F011C0A2F012C040
:100CC000A3F09CC028F09DC029F09EC02AF09FC0D0
:100CD0002BF0A0C02CF0A1C02DF0A2C02EF0A3C01C
:100CE0002FF0E1EC19F0D8B078EF06F07AEF06F0CB
:100CF00085EF06F0000E0001A06F000EA16F000E40
:100D0000A26F000EA36FAEEF06F09CC001F09DC075
:100D100002F09EC003F09FC004F0A0C005F0A1C087
:100D200006F0A2C007F0A3C008F089EC1EF0D8A01E
:100D30009CEF06F09EEF06F0AEEF06F0000192B1D8
:100D4000A4EF06F0A6EF06F0AEEF06F0000EA06FDF
:100D5000000EA16F000EA26F000EA36FA6C001F0DF
:100D6000A7C002F0A8C003F0A9C004F0A0C005F01D
:100D7000A1C006F0A2C007F0A3C008F0C4EC0CF0BC
:100D800001C09CF002C09DF003C09EF004C09FF023
:100D90009CC028F09DC029F09EC02AF09FC02BF077
:100DA000000E136E000E146E200E156E410E166EA0
:100DB0008EC00FF08FC010F090C011F091C012F0F3
:100DC00024EC0FF00FC02CF010C02DF011C02EF04D
:100DD00012C02FF0E1EC19F0D8A0F1EF06F0F3EF1C
:100DE00006F01CEF07F00001AA4BAB2B8EC00FF0F2
:100DF0008FC010F090C011F091C012F0000E136E71
:100E0000000E146E200E156E410E166E24EC0FF0BF
:100E10000FC08EF010C08FF011C090F012C091F092
:100E2000660E00019A19D8A418EF07F01AEF07F020
:100E30001CEF07F08C4B8D2B8EC0AEF08FC0AFF047
:100E400090C0B0F091C0B1F0650E00019A19D8B40D
:100E50002CEF07F02EEF07F034EF07F0AAC08AF06E
:100E6000ABC08BF038EF07F0000E8B6F000E8A6F6F
:100E7000000E896F000E886F000E876F000E866F60
:100E8000000EA56F000EA46F34EF08F09CC028F090
:100E90009DC029F09EC02AF09FC02BF0AEC02CF060
:100EA000AFC02DF0B0C02EF0B1C02FF039EC11F072
:100EB00028C041F029C042F02AC043F02BC044F0C2
:100EC00075EC14F041C0A0F042C0A1F043C0A2F004
:100ED00044C0A3F0A0C001F0A1C002F0A2C003F082
:100EE000A3C004F05EEC19F001C092F002C093F0D0
:100EF0007DB87DEF07F07FEF07F09DEF07F0000171
:100F000092519311D8A487EF07F089EF07F09DEF76
:100F100007F0670E9B19D8A490EF07F092EF07F047
:100F20009DEF07F08BBF99EF07F097EF07F09DEF6C
:100F300007F0864B872BE8EF07F0000188518911F5
:100F4000D8A4A5EF07F0A7EF07F0D1EF07F08BBF0C
:100F5000AEEF07F0ACEF07F0D1EF07F0000EAC25D5
:100F6000D96E010EAD21DA6E2E0EDF6EAC4BAD2BBD
:100F70009807D8A09907000E896F010E886FD1EFEE
:100F800007F0000EAC25D96E010EAD21DA6E300EE1
:100F9000DF6EAC4BAD2B9807D8A099078607D8A079
:100FA000870786518711D8A4D8EF07F0DAEF07F04A
:100FB000C1EF07F0000EAC25D96E010EAD21DA6E3F
:100FC0009251300FDF6EAC4BAD2B9807D8A099072C
:100FD0009CC028F09DC029F09EC02AF09FC02BF035
:100FE000AEC013F0AFC014F0B0C015F0B1C016F031
:100FF000A0C00FF0A1C010F0A2C011F0A3C012F069
:1010000024EC0FF00FC02CF010C02DF011C02EF00A
:1010100012C02FF0A2EC20F028C09CF029C09DF057
:101020002AC09EF02BC09FF0AEC028F0AFC029F0C0
:10103000B0C02AF0B1C02BF0000E2C6E000E2D6E49
:10104000200E2E6E410E2F6E39EC11F028C0AEF03E
:1010500029C0AFF02AC0B0F02BC0B1F000018A0760
:10106000D8A08B07A44BA52B8C51A45DA551800A59
:101070005C6E8D51800A5C58D8B041EF08F043EFA8
:1010800008F051EF08F0ADBF4FEF08F0AD5109E1A6
:101090004B0EAC5DD8A04FEF08F051EF08F046EFD3
:1010A00007F088518911D8A458EF08F05AEF08F0DA
:1010B0006BEF08F07DA85FEF08F061EF08F06BEFD1
:1010C00008F0000EAC25D96E010EAD21DA6E2E0EA1
:1010D000DF6EAC4BAD2B000EAC25D96E010EAD21F1
:1010E000DA6E000EDF6E650E9A19D8A47AEF08F05A
:1010F0007CEF08F0E1EF03F0000EA56F4F0EA46F38
:10110000000EA425D96E010EA521DA6E000EDF6E49
:10111000000E956F000E946FABBF93EF08F091EF48
:1011200008F09BEF08F0000E956F010E946FAA6D0A
:10113000AB1FD8B0AB2B000E976F020E966FCCEFA3
:1011400008F0A407D8A0A507000EA425D96E010EAB
:10115000A521DA6EAAC001F0ABC002F0000E046E49
:101160000A0E036E31EC1EF00150300FDF6EAAC084
:1011700001F0ABC002F0000E046E0A0E036E6EECBE
:101180001DF001C0AAF002C0ABF000019607D8A084
:1011900097079807D8A09907AA51AB11D8A4D3EF05
:1011A00008F0D5EF08F0A1EF08F097BFE2EF08F0E4
:1011B000975106E19605D8B0E0EF08F0E2EF08F0AD
:1011C000A1EF08F0A407D8A0A50794519511D8A4C1
:1011D000ECEF08F0EEEF08F0F4EF08F0000E836F8C
:1011E0002B0E826FF8EF08F0000E836F2D0E826FCA
:1011F000000EA425D96E010EA521DA6E82C0DFFF94
:101200009807D8A09907A407D8A0A507BF0E5C6EC1
:10121000FF0E5D6E5B505E6E5F6A5C505E265D50D9
:101220005F225F5009E11A0E5E5CD8A01AEF09F048
:101230001CEF09F022EF09F0000E856F650E846F38
:1012400026EF09F0000E856F450E846F000EA42571
:10125000D96E010EA521DA6E84C0DFFF9807D8A0F1
:101260009907000EAC25016E010EAD21026E000E35
:10127000A425036E010EA521046EFFEC1FF0E1EF23
:1012800003F01200B4C0D9FFB5C0DAFFDECFF6FF1D
:10129000DDCFF7FF0800F550250AD8A452EF09F07A
:1012A00054EF09F0A8EF0CF0B4C0D9FFB5C0DAFFD5
:1012B000DE2A000EDD22000E7A6E000E796E79C0F5
:1012C0007DF07AC07EF07B687C68000E6E6E000E4A
:1012D0006D6EB1EF09F07D80B4C0D9FFB5C0DAFF03
:1012E000DE2A000EDD22B1EF09F07D826CEF09F0FD
:1012F0007D846CEF09F07D866CEF09F07D886CEFE2
:1013000009F0000E6E6E010E6D6EB1EF09F0B4C003
:10131000D9FFB5C0DAFFDECFF6FFDDCFF7FF08005B
:10132000F550616E626A6250000AD8B49AEF09F013
:1013300081EF09F06150200AD8B47BEF09F0030A6D
:10134000D8B47EEF09F0080AD8B478EF09F0060A9D
:10135000D8B46BEF09F01D0AD8B475EF09F081EF2E
:1013600009F06D506E10D8B4B8EF09F0BAEF09F07B
:1013700087EF09F07DA0BFEF09F0C1EF09F0C2EFE0
:1013800009F07D92B4C0D9FFB5C0DAFFDECFF6FF19
:10139000DDCFF7FF0800F5502A0AD8A4D2EF09F0F4
:1013A000D4EF09F0FDEF09F0B4C0D9FFB5C0DAFF02
:1013B000DE2A000EDD22B6C0D9FFB7C0DAFFDFCFCC
:1013C00061F0020EDE26DFCF62F0000EDD2261C08A
:1013D000D9FF62C0DAFFDECF79F0DDCF7AF07ABED6
:1013E000F6EF09F0F4EF09F033EF0AF07D80796C45
:1013F0007A1ED8B07A2A33EF0AF0B4C0D9FFB5C04C
:10140000DAFFDECF08F0DDCF09F0B3EC18F008C04A
:1014100079F009C07AF014EF0AF0B4C0D9FFB5C072
:10142000DAFFDE2A000EDD22D00E616EFF0E626E44
:10143000B4C0D9FFB5C0DAFFDECFF6FFDDCFF7FFCE
:101440000800F550636E646A61506326625064223E
:10145000645009E10A0E635CD8A031EF0AF033EF63
:101460000AF00DEF0AF0B4C0D9FFB5C0DAFFDECF45
:10147000F6FFDDCFF7FF0800F5502E0AD8A443EFA2
:101480000AF045EF0AF0B5EF0AF0000E7C6E000E90
:101490007B6EB4C0D9FFB5C0DAFFDE2A000EDD22B4
:1014A000B4C0D9FFB5C0DAFFDECFF6FFDDCFF7FF5E
:1014B0000800F5502A0AD8A460EF0AF062EF0AF09B
:1014C0007FEF0AF0B4C0D9FFB5C0DAFFDE2A000E04
:1014D000DD22B6C0D9FFB7C0DAFFDFCF61F0020E60
:1014E000DE26DFCF62F0000EDD2261C0D9FF62C0D0
:1014F000DAFFDECF7BF0DDCF7CF0B5EF0AF0B4C0D1
:10150000D9FFB5C0DAFFDECF08F0DDCF09F0B3ECCC
:1015100018F008C07BF009C07CF096EF0AF0B4C068
:10152000D9FFB5C0DAFFDE2A000EDD22D00E616ED3
:10153000FF0E626EB4C0D9FFB5C0DAFFDECFF6FF92
:10154000DDCFF7FF0800F550636E646A61506326D3
:1015500062506422645009E10A0E635CD8A0B3EFC4
:101560000AF0B5EF0AF08FEF0AF0B4C0D9FFB5C0AA
:10157000DAFFDECFF6FFDDCFF7FF0800F550076E8C
:10158000086A7FEC20F00750736E7350D8B4CBEF2D
:101590000AF0CDEF0AF005EF0BF0B4C0D9FFB5C0EB
:1015A000DAFFDECF61F0DDCF62F0010E6126000EC2
:1015B000622261C0F6FF62C0F7FF0800F550076EB7
:1015C000086A7FEC20F00750746E7450D8B4EBEFCB
:1015D0000AF0EDEF0AF005EF0BF0B4C0D9FFB5C08B
:1015E000DAFFDECF61F0DDCF62F0020E6126000E81
:1015F000622261C0F6FF62C0F7FF0800F550076E77
:10160000086A7FEC20F00750756EB4C0D9FFB5C0F2
:10161000DAFFDECFF6FFDDCFF7FF0800F550630AF3
:10162000D8A415EF0BF017EF0BF03EEF0BF0B4C0A2
:10163000D9FFB5C0DAFFDE2A000EDD22B6C0D9FF21
:10164000B7C0DAFFDFCF61F0020EDE26DFCF62F037
:10165000000EDD2261C0D9FF62C0DAFFDF50766E76
:10166000B2C00AF0B3C00BF076C00CF035EC1CF041
:101670000AC0B2F00BC0B3F0C3EF0CF0B4C0D9FF96
:10168000B5C0DAFFDECFF6FFDDCFF7FF0800F5507B
:10169000640AD8B44EEF0BF050EF0BF062EF0BF092
:1016A000B4C0D9FFB5C0DAFFDECFF6FFDDCFF7FF5C
:1016B0000800F550690AD8A460EF0BF062EF0BF058
:1016C000A2EF0BF0B4C0D9FFB5C0DAFFDE2A000EDE
:1016D000DD22B6C0D9FFB7C0DAFFDFCF61F0020E5E
:1016E000DE26DFCF62F0000EDD2261C0D9FF62C0CE
:1016F000DAFFDECF65F0DDCF66F0000E66BEFF0ECE
:10170000676E686E696E6A6E6B6E6C6EB2C01CF04E
:10171000B3C01DF065C01EF066C01FF067C020F0AA
:1017200068C021F069C022F06AC023F06BC024F0C9
:101730006CC025F006EC13F01CC0B2F01DC0B3F075
:10174000C3EF0CF0660E7318D8A4A9EF0BF0ABEF43
:101750000BF0EBEF0BF0B4C0D9FFB5C0DAFFDECF72
:10176000F6FFDDCFF7FF0800F5CF76F0B4C0D9FF64
:10177000B5C0DAFFDE2A000EDD22B6C0D9FFB7C041
:10178000DAFFDFCF61F0040EDE26DFCF62F0000E5D
:10179000DD2261C0D9FF62C0DAFFDECF6FF0DECF9D
:1017A00070F0DECF71F0DECF72F0B2C055F0B3C092
:1017B00056F06FC057F070C058F071C059F072C049
:1017C0005AF076C05BF03AEC03F055C0B2F056C068
:1017D000B3F0C3EF0CF0730E016E000E026E700ECC
:1017E000036E060E046E000E066E020E056ECAEC47
:1017F0001BF001500210D8A400EF0CF002EF0CF027
:1018000070EF0CF0B4C0D9FFB5C0DAFFDECF61F0E5
:10181000DDCF62F0010E6126000E622261C0F6FF8C
:1018200062C0F7FF0800F5CF76F0BF0E616EFF0EC5
:10183000626EB4C0D9FFB5C0DAFFDECFF6FFDDCFF0
:10184000F7FF0800F550636E646A615063266250CA
:101850006422645007E11A0E635CD8B032EF0CF0DA
:1018600034EF0CF04EEF0CF0B6C0D9FFB7C0DAFF82
:10187000DFCF61F0040EDE26DFCF62F0000EDD2246
:1018800061C0D9FF62C0DAFFDECF6FF0DECF70F04B
:10189000DECF71F0DECF72F066EF0CF0B6C0D9FF8C
:1018A000B7C0DAFFDFCF61F0040EDE26DFCF62F0D3
:1018B000000EDD2261C0D9FF62C0DAFFDECF6FF01B
:1018C000DECF70F0DECF71F0DECF72F0020EB4C06A
:1018D000D9FFB5C0DAFFDE26000EDD22D5EF0BF012
:1018E000B4C0D9FFB5C0DAFFDECFF6FFDDCFF7FF1A
:1018F0000800F550250AD8A480EF0CF082EF0CF018
:101900009AEF0CF0B4C0D9FFB5C0DAFFDE2A000EA2
:10191000DD22000E026E250E016EB2C003F0B3C0D0
:1019200004F009EC1DF0000E0001B36F010EB26F60
:10193000C3EF0CF0B4C0D9FFB5C0DAFFDE2A000E49
:10194000DD22000E0001B36F000EB26FC3EF0CF08A
:10195000B4C0D9FFB5C0DAFFDECFF6FFDDCFF7FFA9
:101960000800F550016E026AB2C003F0B3C004F083
:1019700009EC1DF0B4C0D9FFB5C0DAFFDE2A000EB5
:10198000DD2293EF0CF012000450800B0D6E04501A
:1019900004240F6E03AECFEF0CF0D1EF0CF0D2EFBA
:1019A0000CF00F800F50D8B4D8EF0CF0DAEF0CF039
:1019B000EFEF0CF00F28D8A4E0EF0CF0E2EF0CF002
:1019C000EAEF0CF0000E016E000E026E000E036EC8
:1019D000000E046E038E000E046EF7EF0CF0000E86
:1019E000016E000E026E000E036E000E046E0850B3
:1019F000800B0E6E0D500E18D8B401EF0DF003EFF2
:101A00000DF004EF0DF00D8C085008240E6E07AE9B
:101A10000CEF0DF00EEF0DF00FEF0DF00E800E50ED
:101A2000D8B415EF0DF017EF0DF02CEF0DF00E28D8
:101A3000D8A41DEF0DF01FEF0DF027EF0DF0000EF5
:101A4000056E000E066E000E076E000E086E078E05
:101A5000000E086E34EF0DF0000E056E000E066EDF
:101A6000000E076E000E086E0F500E5CD8B03BEFF4
:101A70000DF03DEF0DF064EF0DF00DAC42EF0DF009
:101A800044EF0DF046EF0DF0800E0D1A0FC010F070
:101A90000EC00FF010C00EF001C010F005C001F034
:101AA00010C005F002C010F006C002F010C006F031
:101AB00003C010F007C003F010C007F004C010F01E
:101AC00008C004F010C008F0000E106E0F500EC0D9
:101AD00009F00A6A095E000E0A5A0ABE79EF0DF093
:101AE0000A5009E11A0E095CD8A079EF0DF07BEFDE
:101AF0000DF0B2EF0DF00150021003100410D8A445
:101B000084EF0DF087EF0DF0010E88EF0DF0000E61
:101B1000106E000E016E000E026E000E036E000EBF
:101B2000046E0EC00FF0BBEF0DF010A09AEF0DF099
:101B30009CEF0DF0A2EF0DF0D89010300109106E5F
:101B4000A4EF0DF0D890103201A0A9EF0DF0ABEF8B
:101B50000DF0ACEF0DF0108E04340432033202327B
:101B600001320F2A0E500F5CD8A0B9EF0DF0BBEF79
:101B70000DF095EF0DF00DBCC0EF0DF0C2EF0DF0C4
:101B800002EF0EF00F50D8A4C8EF0DF0CAEF0DF021
:101B9000D4EF0DF0000E016E000E026E000E036E0B
:101BA000000E046E23EF0FF00550012606500222AE
:101BB000075003220850042204A0E1EF0DF0E3EFE8
:101BC0000DF08FEF0EF010A0E8EF0DF0EAEF0DF042
:101BD000F0EF0DF0D89010300109106EF2EF0DF01B
:101BE000D890103201A0F7EF0DF0F9EF0DF0FAEFF9
:101BF0000DF0108E043404320332023201320F2A07
:101C00008FEF0EF00550015C065002580750035844
:101C10000450800A096E0850800A0958D8B013EFA2
:101C20000EF015EF0EF040EF0EF00150055C096E5E
:101C3000025006580A6E035007580B6E045008589D
:101C40000C6EFF0E0924016EFF0E0A20026EFF0EBD
:101C50000B20036EFF0E0C20046E800E0D1A106C0C
:101C60001050D8A436EF0EF038EF0EF048EF0EF01B
:101C7000010E0126000E02220322042248EF0EF07C
:101C80000550015E0650025A0750035A0850045A84
:101C90000150021003100410D8A451EF0EF053EFBE
:101CA0000EF088EF0EF01050D8A459EF0EF05BEF55
:101CB0000EF088EF0EF0000E016E000E026E000EA8
:101CC000036E000E046E23EF0FF0D890013602363B
:101CD0000336043610AE6FEF0EF071EF0EF072EFB8
:101CE0000EF0018010A077EF0EF079EF0EF07DEF8F
:101CF0000EF0D88010367FEF0EF0D89010360F50CF
:101D0000D8B485EF0EF087EF0EF088EF0EF00F06D7
:101D100003AE8DEF0EF08FEF0EF065EF0EF0000EBC
:101D20000E6E10AE96EF0EF098EF0EF0B0EF0EF0D4
:101D300010C009F07F0E0916D8B4A1EF0EF0A3EF82
:101D40000EF0A7EF0EF0010E0E6EB0EF0EF001A038
:101D5000ACEF0EF0AEEF0EF0B0EF0EF0A3EF0EF022
:101D60000E50D8B4B6EF0EF0B8EF0EF0E3EF0EF071
:101D7000010E0126000E02220322042204A0C3EF5A
:101D80000EF0C5EF0EF0E3EF0EF001C009F002C057
:101D90000AF003C00BF004C00CF00C340C320B3210
:101DA0000A32093209C001F00AC002F00BC003F088
:101DB0000CC004F00F28D8B4E0EF0EF0E2EF0EF004
:101DC000E3EF0EF00F2A0F28D8B4E9EF0EF0EBEF97
:101DD0000EF0F3EF0EF00F50D8A4F1EF0EF0F3EF8A
:101DE0000EF005EF0FF0000E016E000E026E000EF9
:101DF000036E000E046E0F50D8A401EF0FF003EF36
:101E00000FF005EF0FF0000E0D6E0FA00AEF0FF0B0
:101E10000CEF0FF00FEF0FF0038E10EF0FF0039E9B
:101E2000D8900F30046E0DAE18EF0FF01AEF0FF0D0
:101E30001BEF0FF0048E01C001F002C002F003C0DE
:101E400003F004C004F012001250800B1B6E1250FD
:101E50001224216E11AE2FEF0FF031EF0FF032EFA1
:101E60000FF021802150D8B438EF0FF03AEF0FF087
:101E70004DEF0FF02128D8A440EF0FF042EF0FF004
:101E80004AEF0FF0000E0F6E000E106E000E116E76
:101E9000000E126E118E55EF0FF0000E0F6E000E39
:101EA000106E000E116E000E126E1650800B1B1A73
:101EB00016501624206E15AE60EF0FF062EF0FF093
:101EC00063EF0FF020802050D8B469EF0FF06BEF74
:101ED0000FF07EEF0FF02028D8A471EF0FF073EF12
:101EE0000FF07BEF0FF0000E136E000E146E000E5D
:101EF000156E000E166E158E86EF0FF0000E136E27
:101F0000000E146E000E156E000E166E2050D8B422
:101F10008CEF0FF08EEF0FF096EF0FF02150D8A45A
:101F200094EF0FF096EF0FF0A0EF0FF0000E0F6E92
:101F3000000E106E000E116E000E126E38EF11F0D2
:101F400015500F02F3CF26F0F4CF27F026501C6E69
:101F50001D6A1E6A1F6A2750226E236A246A256A38
:101F600014501002F3CF26F0F4CF27F026501C2691
:101F7000000E1D221E221F2227502226000E232281
:101F80002422252213501102F3CF26F0F4CF27F09C
:101F900026501C26000E1D221E221F2227502226FC
:101FA000000E2322242225221EC01FF01DC01EF079
:101FB0001CC01DF01C6A13501002F3CF26F0F4CFA2
:101FC00027F026501C2627501D22000E1E22000E30
:101FD0001F2214500F02F3CF26F0F4CF27F0265023
:101FE0001C2627501D22000E1E22000E1F221EC07E
:101FF0001FF01DC01EF01CC01DF01C6A13500F0204
:10200000F3CF26F0F4CF27F026501C2627501D22B0
:10201000000E1E22000E1F2215501002F3CF26F0D4
:10202000F4CF27F02650222627502322000E242208
:10203000000E252214501102F3CF26F0F4CF27F022
:102040002650222627502322000E2422000E25226D
:1020500015501102F3CF26F0F4CF27F02650176E5B
:102060002750186E196A1A6A19C01AF018C019F0A8
:1020700017C018F0176A175022261850232219503B
:1020800024221A5025221CC017F01DC018F01EC0B3
:1020900019F01FC01AF0190E53EF10F0D8901A3231
:1020A000193218321732E82E4EEF10F01750222650
:1020B00018502322195024221A5025221EC01FF026
:1020C0001DC01EF01CC01DF01C6A205021C017F05E
:1020D000186A1726000E1822820E1724266EFF0E8D
:1020E0001820276E89EF10F0D89022362336243638
:1020F00025361FAE7EEF10F080EF10F081EF10F06C
:102100002280D8901C361D361E361F362606D8A0D3
:10211000270624AE8EEF10F090EF10F074EF10F061
:10212000000E206E1FAE97EF10F099EF10F0BDEF8C
:1021300010F0FF0E1C14176EFF0E1D14186EFF0E0C
:102140001E14196E7F0E1F141A6E175018101910D6
:102150001A10D8B4AEEF10F0B0EF10F0B4EF10F0EA
:10216000010E206EBDEF10F022A0B9EF10F0BBEF12
:1021700010F0BDEF10F0B0EF10F02050D8B4C3EF66
:1021800010F0C5EF10F0E9EF10F0010E2226000E5E
:1021900023222422252225A0D0EF10F0D2EF10F028
:1021A000E9EF10F022C017F023C018F024C019F096
:1021B00025C01AF01A341A3219321832173217C0E1
:1021C00022F018C023F019C024F01AC025F0264AC6
:1021D000272A27BEF4EF10F0275008E12628D8A0C0
:1021E000F4EF10F0F6EF10F000EF11F0000E226E99
:1021F000000E236E800E246E7F0E256E2EEF11F0E2
:1022000027BE0DEF11F0275006E12604D8B00BEFE2
:1022100011F00DEF11F019EF11F0000E226E000E0B
:10222000236E000E246E000E256E000E1B6E2EEF28
:1022300011F026C021F0FF0E2216FF0E23167F0E8E
:102240002416000E251621A028EF11F02AEF11F018
:102250002BEF11F0248ED8902130256E1B502512C3
:1022600022C00FF023C010F024C011F025C012F0DE
:1022700012002B50800B386E2B502B243F6E2AAE51
:1022800044EF11F046EF11F047EF11F03F803F505F
:10229000D8B44DEF11F04FEF11F064EF11F03F287B
:1022A000D8A455EF11F057EF11F05FEF11F0000EC9
:1022B000286E000E296E000E2A6E000E2B6E2A8EDE
:1022C000000E2B6E6CEF11F0000E286E000E296EC2
:1022D000000E2A6E000E2B6E2F50800B381A2F50D6
:1022E0002F24406E2EAE77EF11F079EF11F07AEFD8
:1022F00011F040804050D8B480EF11F082EF11F01F
:1023000097EF11F04028D8A488EF11F08AEF11F070
:1023100092EF11F0000E2C6E000E2D6E000E2E6E40
:10232000000E2F6E2E8E000E2F6E9FEF11F0000EFE
:102330002C6E000E2D6E000E2E6E000E2F6E2C5089
:102340002D102E102F10D8A4A8EF11F0AAEF11F025
:10235000C2EF11F0000E286E000E296E000E2A6EDC
:10236000000E2B6E800E2A127F0E2B1238502B126D
:1023700028C028F029C029F02AC02AF02BC02BF051
:1023800005EF13F03F50D8A4C8EF11F0CAEF11F0D9
:10239000D4EF11F0000E286E000E296E000E2A6E8A
:1023A000000E2B6E05EF13F040503FC030F0316A45
:1023B000305E000E315A7F0E3024396E000E31200F
:1023C0003A6E28C034F029C035F02AC036F02BC050
:1023D00037F0000E286E000E296E000E2A6E000ED9
:1023E0002B6E000E3B6E000E3C6E000E3D6E000E1E
:1023F0003E6E000E406E35EF12F04050D8B403EF41
:1024000012F005EF12F01CEF12F0D890343635368A
:1024100036363736D890283629362A362B363EAE11
:1024200014EF12F016EF12F017EF12F02880D89088
:102430003B363C363D363E362C50345C2D503558BC
:102440002E5036582F503758D8A029EF12F02BEFC6
:1024500012F034EF12F03E8C2C50345E2D50355A71
:102460002E50365A2F50375A402A190E40643BEFEF
:1024700012F03DEF12F0FDEF11F034503510361030
:102480003710D8B446EF12F048EF12F060EF12F0B8
:102490003B8060EF12F0D890283629362A362B364A
:1024A0003EAE55EF12F057EF12F058EF12F02880C1
:1024B000D8903B363C363D363E363906D8A03A06F3
:1024C0002AAE65EF12F067EF12F04BEF12F0000E3C
:1024D000406E3EAE6EEF12F070EF12F094EF12F01D
:1024E000FF0E3B14306EFF0E3C14316EFF0E3D1498
:1024F000326E7F0E3E14336E305031103210331076
:10250000D8B485EF12F087EF12F08BEF12F0010EC6
:10251000406E94EF12F028A090EF12F092EF12F0BC
:1025200094EF12F087EF12F04050D8B49AEF12F007
:102530009CEF12F0C0EF12F0010E2826000E2922A7
:102540002A222B222BA0A7EF12F0A9EF12F0C0EF46
:1025500012F028C030F029C031F02AC032F02BC070
:1025600033F03334333232323132303230C028F04B
:1025700031C029F032C02AF033C02BF0394A3A2A50
:102580003ABECBEF12F03A5008E13928D8A0CBEF91
:1025900012F0CDEF12F0D8EF12F0000E3A6E39685B
:1025A000000E286E000E296E000E2A6E000E2B6E95
:1025B0003ABEE5EF12F03A5006E13904D8B0E3EF45
:1025C00012F0E5EF12F0F3EF12F0000E3A6E000E8B
:1025D000396E000E286E000E296E000E2A6E000E57
:1025E0002B6E000E386E39C03FF03FA0FAEF12F0AC
:1025F000FCEF12F0FFEF12F02A8E00EF13F02A9E8C
:10260000D8903F302B6EB6EF11F012001EC036F09E
:102610001FC037F020C038F021C039F022C03AF096
:1026200023C03BF024C03CF025C03DF03DBE1BEF75
:1026300013F01EEF13F0010E1FEF13F0000E346EB7
:10264000356A34503510D8B428EF13F02AEF13F060
:102650003AEF13F03D1E3C1E3B1E3A1E391E381E3B
:10266000371E366C000E3722382239223A223B229E
:102670003C223D227CBE3FEF13F041EF13F042EFCE
:1026800013F07D927CBE4FEF13F07C5006E17B048B
:10269000D8B04DEF13F04FEF13F055EF13F0000EDD
:1026A000316E010E306E59EF13F07BC030F07CC0FC
:1026B00031F079C032F07AC033F034503510D8A4FC
:1026C00064EF13F066EF13F06DEF13F07DA46BEF82
:1026D00013F06DEF13F070EF13F03206D8A033064D
:1026E000000E3F6E4F0E3E6E000E01014F6FF5EF74
:1026F00013F03E06D8A03F06000E3E24D96E010E10
:102700003F20DA6E36C001F037C002F038C003F067
:1027100039C004F03AC005F03BC006F03CC007F0F9
:102720003DC008F00A0E096E000E0A6E000E0B6E18
:10273000000E0C6E000E0D6E000E0E6E000E0F6E73
:10274000000E106E01EC18F001C026F002C027F058
:1027500003C028F004C029F005C02AF006C02BF001
:1027600007C02CF008C02DF026C013F028C014F0CC
:10277000E7EC20F01350300FDF6E3006D8A03106A2
:102780003206D8A0330636C001F037C002F038C098
:1027900003F039C004F03AC005F03BC006F03CC07D
:1027A00007F03DC008F00A0E096E000E0A6E000E1A
:1027B0000B6E000E0C6E000E0D6E000E0E6E000EF7
:1027C0000F6E000E106E3DEC17F001C036F002C027
:1027D00037F003C038F004C039F005C03AF006C045
:1027E0003BF007C03CF008C03DF03FBE00EF14F0E6
:1027F0003F5008E13E04D8A000EF14F002EF14F0BF
:1028000032EF14F036503710381039103A103B10B0
:102810003C103D10D8A40FEF14F011EF14F079EF35
:1028200013F031BE1EEF14F0315006E13004D8B081
:102830001CEF14F01EEF14F079EF13F033BE29EF04
:1028400014F0335008E13204D8A029EF14F02BEF34
:1028500014F032EF14F07DB230EF14F032EF14F0D8
:1028600079EF13F034503510D8A439EF14F03BEF62
:1028700014F042EF14F07DA440EF14F042EF14F096
:1028800060EF14F03E06D8A03F0634503510D8A4AF
:102890004CEF14F04EEF14F054EF14F0000E2F6EC6
:1028A0002B0E2E6E58EF14F0000E2F6E2D0E2E6E86
:1028B000000E3E24D96E010E3F20DA6E2EC0DFFFDF
:1028C0001CC011F01DC012F0000E3E24136E010E4C
:1028D0003F20146E32C015F033C016F0D0EC1DF05E
:1028E00011C01CF012C01DF01200D5C051F0D6C0AE
:1028F00052F0D7C053F0D8C054F041C051F042C09C
:1029000052F043C053F044C054F0810E456EFF0EA8
:10291000466E51C047F052C048F053C049F054C011
:102920004AF0180E99EF14F0D8904A3249324832E2
:102930004732E82E94EF14F0475045244F6E000EB6
:102940004620506E50BEAEEF14F0505009E1170E05
:102950004F5CD8A0AEEF14F0B0EF14F0BAEF14F063
:1029600041C041F042C042F043C043F044C044F093
:102970007DEF15F050BEBFEF14F0C1EF14F031EF52
:1029800015F04FC045F0FF0E466EFF0E476E7F0EEE
:10299000486E000E496E4566D0EF14F0D8EF14F083
:1029A00049344932483247324632452ECBEF14F093
:1029B00046C04BF047C04CF048C04DF049C04EF007
:1029C0004B505114456E4C505214466E4D5053149A
:1029D000476E4E505414486E4550461047104810EC
:1029E000D8A4F5EF14F0F7EF14F0F9EF14F0B0EF0E
:1029F00014F051C045F052C046F053C047F054C0E7
:102A000048F0200E09EF15F0D89048324732463290
:102A10004532E82E04EF15F0455046104710481097
:102A2000D8B415EF15F017EF15F01FEF15F04B5058
:102A300051264C5052224D5053224E5054224B1C82
:102A4000456E4C1C466E4D1C476E4E1C486E4550E4
:102A5000511646505216475053164850541675EFAB
:102A600015F051C045F052C046F053C047F054C075
:102A700048F0200E41EF15F0D890483247324632E8
:102A80004532E82E3CEF15F04550461047104810EF
:102A9000D8A44DEF15F04FEF15F059EF15F0000EDB
:102AA000516E000E526E000E536E000E546E75EF96
:102AB00015F0D8905134456E5234466E5334476EFB
:102AC0005434486E4550461047104810D8B46BEF48
:102AD00015F06DEF15F075EF15F0000E516E000E4C
:102AE000526E800E536EBF0E546E51C041F052C0F4
:102AF00042F053C043F054C044F01200000E286E60
:102B0000000E296ED20E2A6E420E2B6EE5C02CF0FE
:102B1000E6C02DF0E7C02EF0E8C02FF0E1EC19F090
:102B2000D8A095EF15F097EF15F0A6EF15F0000E71
:102B30000001F06F000EEF6F000EEE6F000EED6FF4
:102B4000000EEC6F010EEB6F50EF16F0000E286ECA
:102B5000000E296ED20E2A6E420E2B6EE5C02CF0AE
:102B6000E6C02DF0E7C02EF0E8C02FF0E1EC19F040
:102B7000D8B0BDEF15F0BFEF15F0E7EF15F0000E80
:102B8000286E000E296E520E2A6E430E2B6EE5C083
:102B90002CF0E6C02DF0E7C02EF0E8C02FF0E1ECFD
:102BA00019F0D8A0D6EF15F0D8EF15F0E7EF15F033
:102BB000000E0001F06F010EEF6F000EEE6F000EC1
:102BC000ED6F000EEC6F010EEB6F50EF16F0000E84
:102BD000286E000E296E520E2A6E430E2B6EE5C033
:102BE0002CF0E6C02DF0E7C02EF0E8C02FF0E1ECAD
:102BF00019F0D8B0FEEF15F000EF16F028EF16F040
:102C0000000E286E800E296E9D0E2A6E430E2B6ECE
:102C1000E5C02CF0E6C02DF0E7C02EF0E8C02FF0A4
:102C2000E1EC19F0D8A017EF16F019EF16F028EF25
:102C300016F0000E0001F06F010EEF6F000EEE6F48
:102C4000010EED6F000EEC6F010EEB6F50EF16F002
:102C5000000E286E800E296E9D0E2A6E430E2B6E7E
:102C6000E5C02CF0E6C02DF0E7C02EF0E8C02FF054
:102C7000E1EC19F0D8B03FEF16F041EF16F050EF4D
:102C800016F0000E0001F06F010EEF6F000EEE6FF8
:102C9000010EED6F000EEC6F000EEB6F50EF16F0B3
:102CA0000001EFB102D0829001D082800001EDB12D
:102CB00002D0829201D082820001EBB102D08294D4
:102CC00001D082841200096E0950D8B46AEF16F060
:102CD0006CEF16F08EEF16F004BE73EF16F071EF86
:102CE00016F08EEF16F001C005F002C006F003C02A
:102CF00007F004C008F0051E061E071E081E052A60
:102D0000000E06220722082205C00BF006C00CF0B8
:102D100007C00DF008C00EF096EF16F001C00BF0E2
:102D200002C00CF003C00DF004C00EF00150021000
:102D300003100410D8A49FEF16F0A1EF16F0ABEF2C
:102D400016F0000E016E000E026E000E036E000EF5
:102D5000046E3CEF17F0960E0A6EB5EF16F00A2AD5
:102D6000D8900E320D320C320B32000E0B14056E61
:102D7000000E0C14066E000E0D14076EFE0E0E14DF
:102D8000086E0550061007100810D8A4CAEF16F0F8
:102D9000CCEF16F0AFEF16F0DAEF16F00A2A010EBC
:102DA0000B26000E0C220D220E22D8900E320D3270
:102DB0000C320B32000E0B14056E000E0C14066E56
:102DC000000E0D14076EFF0E0E14086E055006104F
:102DD00007100810D8A4EFEF16F0F1EF16F0CEEFC1
:102DE00016F0F9EF16F00A06D8900B360C360D36B1
:102DF0000E360DBEFEEF16F000EF17F008EF17F0DD
:102E0000020E0A6006EF17F008EF17F0F3EF16F066
:102E10000AB00DEF17F00FEF17F010EF17F00D9E3F
:102E2000D8900A320AC005F0066A076A086A05C027
:102E300008F0076A066A056A05500B1206500C1264
:102E400007500D1208500E120950D8B42AEF17F08F
:102E50002CEF17F034EF17F004BE33EF17F031EF1B
:102E600017F034EF17F00E8E0BC001F00CC002F01B
:102E70000DC003F00EC004F01200000E126E10BE62
:102E800046EF17F044EF17F058EF17F0101E0F1E23
:102E90000E1E0D1E0C1E0B1E0A1E096C000E0A22B1
:102EA0000B220C220D220E220F221022010E126E76
:102EB00008BE5FEF17F05DEF17F071EF17F0081E17
:102EC000071E061E051E041E031E021E016C000EB8
:102ED0000222032204220522062207220822010ED2
:102EE000121A20EE13F0070EDE6AE806FDE2095022
:102EF0000A100B100C100D100E100F101010D8B47B
:102F000084EF17F086EF17F0D8EF17F0010E116E6F
:102F100094EF17F0D89009360A360B360C360D367A
:102F20000E360F361036112A10AE99EF17F09BEFC0
:102F300017F08AEF17F0D890133614361536163678
:102F40001736183619361A360950015C0A500258DD
:102F50000B5003580C5004580D5005580E5006588D
:102F60000F50075810500858D8A0B9EF17F0BBEF12
:102F700017F0CCEF17F00950015E0A50025A0B50BF
:102F8000035A0C50045A0D50055A0E50065A0F5051
:102F9000075A1050085A1380D89010320F320E3250
:102FA0000D320C320B320A320932112E9BEF17F020
:102FB0001250D8B4DEEF17F0E0EF17F0F0EF17F093
:102FC0001A1E191E181E171E161E151E141E136C0F
:102FD000000E1422152216221722182219221A2254
:102FE00013C001F014C002F015C003F016C004F0C5
:102FF00017C005F018C006F019C007F01AC008F095
:103000001200000E126E08BE0AEF18F008EF18F05A
:103010001CEF18F0081E071E061E051E041E031EC8
:10302000021E016C000E0222032204220522062247
:1030300007220822010E126E10BE23EF18F021EFB6
:1030400018F033EF18F0101E0F1E0E1E0D1E0C1E72
:103050000B1E0A1E096C000E0A220B220C220D22E6
:103060000E220F22102209500A100B100C100D1006
:103070000E100F101010D8B440EF18F042EF18F0F7
:103080008AEF18F0010E116E50EF18F0D890093643
:103090000A360B360C360D360E360F361036112A20
:1030A00010AE55EF18F057EF18F046EF18F0095032
:1030B000015C0A5002580B5003580C5004580D5034
:1030C00005580E5006580F50075810500858D8A0F1
:1030D0006CEF18F06EEF18F07EEF18F00950015EFB
:1030E0000A50025A0B50035A0C50045A0D50055AFC
:1030F0000E50065A0F50075A1050085AD8901032E6
:103100000F320E320D320C320B320A320932112ECE
:1031100057EF18F01250D8B490EF18F092EF18F063
:10312000A2EF18F0081E071E061E051E041E031E31
:10313000021E016C000E0222032204220522062236
:103140000722082201C001F002C002F003C003F010
:1031500004C004F005C005F006C006F007C007F083
:1031600008C008F01200000E116E000E106E000E66
:103170000F6E000E0E6EBFEF18F0084A092A08C045
:10318000F6FF09C0F7FF0800F550200AD8B4CBEFCE
:1031900018F0CDEF18F0BDEF18F0F70E0A6EFF0E25
:1031A0000B6E08C0F6FF09C0F7FF0800F5500C6E63
:1031B0000D6A0A500C260B500D220D5009E1050E28
:1031C0000C5CD8A0E6EF18F0E8EF18F0BDEF18F0AF
:1031D000F2EF18F0000E0F6E010E0E6E084A092A6B
:1031E00027EF19F008C0F6FF09C0F7FF0800F550F7
:1031F0000A6E0B6A0B50000AD8B401EF19F027EFE2
:1032000019F00A502B0AD8B4EEEF18F0060AD8B419
:10321000EAEF18F027EF19F010C001F011C002F02A
:10322000000E046E0A0E036EC6EC21F008C0F6FF15
:1032300009C0F7FF0800F550015E000E025A300E7B
:103240000124106E000E0220116EEEEF18F0D00E69
:103250000A6EFF0E0B6E08C0F6FF09C0F7FF0800EC
:10326000F5500C6E0D6A0A500C260B500D220D50B5
:1032700009E10A0E0C5CD8A040EF19F042EF19F0FA
:103280000CEF19F00E500F10D8A449EF19F04BEFC6
:1032900019F059EF19F010C00AF011C00BF00A1E16
:1032A0000B1E0A4A0B2A0AC008F00BC009F05DEF9A
:1032B00019F010C008F011C009F0120003340434F2
:1032C0000A6E0A50D8A467EF19F069EF19F073EF8E
:1032D00019F0000E016E000E026E000E036E000E5D
:1032E000046EE0EF19F001C005F002C006F003C063
:1032F00007F004C008F0200E83EF19F0D8900832D0
:10330000073206320532E82E7EEF19F00550096EBD
:10331000038EFF0E0116FF0E0216FF0E0316000E9F
:103320000416960E0A5E0ABE9AEF19F098EF19F08D
:10333000B0EF19F00A50800A970FD8B0A2EF19F039
:10334000A4EF19F0A6EF19F069EF19F0D890043244
:103350000332023201320A3EA6EF19F0C8EF19F02B
:103360001F0E0A64B6EF19F0B8EF19F0C0EF19F0AC
:1033700069EF19F0D89001360236033604360A0692
:103380000A50D8A4C6EF19F0C8EF19F0BAEF19F037
:103390000950D8B4CEEF19F0D0EF19F0D8EF19F0EA
:1033A000041E031E021E016C000E022203220422D0
:1033B00001C001F002C002F003C003F004C004F039
:1033C0001200000E2814306E000E2914316E800E8B
:1033D0002A14326E7F0E2B14336E3050311032109F
:1033E0003310D8A4F6EF19F0F8EF19F000EF1AF047
:1033F000000E286E000E296E000E2A6E000E2B6E37
:10340000000E2C14306E000E2D14316E800E2E1412
:10341000326E7F0E2F14336E305031103210331055
:10342000D8A415EF1AF017EF1AF01FEF1AF0000EDC
:103430002C6E000E2D6E000E2E6E000E2F6E2BAE1B
:1034400024EF1AF026EF1AF02FEF1AF0286C291E3D
:10345000D8B0292A2A1ED8B02A2A800E2B562FAE81
:1034600034EF1AF036EF1AF03FEF1AF02C6C2D1EE5
:10347000D8B02D2A2E1ED8B02E2A800E2F56000E20
:10348000281A000E291A000E2A1A800E2B1A000E76
:103490002C1A000E2D1A000E2E1A800E2F1A2C50E8
:1034A000285C2D5029582E502A582F502B58D8B010
:1034B0005CEF1AF05EEF1AF061EF1AF0D89062EF4D
:1034C0001AF0D8801200D9C00BF0DAC00CF0DBC0C3
:1034D0000DF0DCC00EF001C00BF002C00CF003C018
:1034E0000DF004C00EF00BC005F00CC006F00DC0CE
:1034F00007F00EC008F0180E83EF1AF0D8900832CB
:10350000073206320532E82E7EEF1AF00550096EBA
:103510000A6A09500A10D8A490EF1AF092EF1AF034
:10352000B2EF1AF0D8900B34056E0C34066E0D34E1
:10353000076E0E34086E0550061007100810D8A448
:10354000A4EF1AF0A6EF1AF0ACEF1AF0000E026E1C
:10355000020E016EE1EF1AF0000E026E030E016E14
:10356000E1EF1AF009280A10D8A4B9EF1AF0BBEF5E
:103570001AF0DDEF1AF00BC005F00CC006F00DC01C
:1035800007F00EC008F0090ED8900536063607364B
:103590000836E82EC4EF1AF0055006100710081080
:1035A000D8B4D5EF1AF0D8EF1AF0010ED9EF1AF00F
:1035B000000E016E026AE1EF1AF0000E026E040EB8
:1035C000016E1200F10E0001BE6F000EBF6F5B0EA8
:1035D000C06F060EC16FEFC0C2F0F0C0C3F02DEC9B
:1035E00020F0780E0001BE6F010EBF6F5B0EC06F42
:1035F000060EC16FEDC0C2F0EEC0C3F02DEC20F09E
:10360000700E0001BE6F010EBF6F500EC06F060E30
:10361000C16FEBC0C2F0ECC0C3F02DEC20F0010E86
:10362000076E490E086E060E096E010E31EC1FF092
:10363000070E076EF10E086E000E096E010E31ECDA
:103640001FF0080E076E410E086E060E096E010E81
:1036500031EC1FF00F0E076E780E086E010E096E2A
:10366000010E31EC1FF0100E076E0F0E086E060EE5
:10367000096E010E31EC1FF0010E076E560E086E3A
:10368000060E096E020E31EC1FF0050E076E700E6D
:10369000086E010E096E020E31EC1FF0060E076E69
:1036A000060E086E060E096E020E31EC1FF01200B7
:1036B000046E100E016E0450D9EC21F0036E033A33
:1036C00083500318EF0B0318836E200E016E045015
:1036D000D9EC21F0036E033A034683500318DF0B45
:1036E0000318836E400E016E0450D9EC21F0036E76
:1036F000033A0346034683500318BF0B0318836E37
:10370000800E016E0450D9EC21F0036E03320332B7
:10371000835003187F0B0318836E84828492420EB9
:10372000E82EFED700D0010E016E0450D9EC21F036
:10373000036E033A83500318EF0B0318836E020ED7
:10374000016E0450D9EC21F0036E033A0346835016
:103750000318DF0B0318836E040E016E0450D9ECBE
:1037600021F0036E033A0346034683500318BF0B50
:103770000318836E080E016E0450D9EC21F0036E1D
:1037800003320332835003187F0B0318836E848245
:103790008492120001C008F002C009F003C00AF0D0
:1037A00004C00BF00506D8A00606052806E1062889
:1037B000D8A4DDEF1BF0DFEF1BF0ECEF1BF0000EE9
:1037C000026E000E016E34EF1CF0084A092A0A4A04
:1037D0000B2A0506D8A0060608C0D9FF09C0DAFFE3
:1037E000DF50D8B4F6EF1BF0F8EF1BF023EF1CF01E
:1037F0000AC0F6FF0BC0F7FF0800F5500009D8B467
:1038000004EF1CF006EF1CF023EF1CF0055006102F
:10381000D8B40DEF1CF00FEF1CF023EF1CF008C024
:10382000D9FF09C0DAFFDF50076E0AC0F6FF0BC0F0
:10383000F7FF0800F5500718D8B421EF1CF023EF6C
:103840001CF0E5EF1BF008C0D9FF09C0DAFFDF501C
:10385000076E0AC0F6FF0BC0F7FF0800F550075CC3
:10386000016E026AD8A00206120079507A10D8A41C
:103870003CEF1CF03EEF1CF044EF1CF079C010F060
:103880007AC011F04AEF1CF0FF0E7924106EFF0E83
:103890007A20116E7DA04FEF1CF051EF1CF05AEF13
:1038A0001CF00CC001F0026A0AC003F00BC004F067
:1038B00009EC1DF011BE5FEF1CF061EF1CF063EF2F
:1038C0001CF067EF1CF0000E116E000E106E000E63
:1038D0000F6E000E0E6E79EF1CF0000E026E200EC1
:1038E000016E0AC003F00BC004F009EC1DF00E4A93
:1038F0000F2A10500E5C0F50800A0D6E1150800A76
:103900000D58D8A086EF1CF088EF1CF06DEF1CF06E
:103910007DB08DEF1CF08FEF1CF098EF1CF00CC009
:1039200001F0026A0AC003F00BC004F009EC1DF0BC
:10393000010E0E240A6E000E0F200B6E1200F9C04D
:1039400001F0FAC002F0036A046A000E63EC16F09C
:1039500001C00FF002C010F003C011F004C012F05B
:103960002E0E136E900E146EA00E156E3B0E166E7C
:1039700024EC0FF00FC0DDF010C0DEF011C0DFF05E
:1039800012C0E0F0DDC028F0DEC029F0DFC02AF070
:10399000E0C02BF0310E2C6E0C0E2D6E430E2E6EF1
:1039A0003C0E2F6E39EC11F028C0E5F029C0E6F08E
:1039B0002AC0E7F02BC0E8F0000E136E000E146E64
:1039C000C80E156E420E166EE5C00FF0E6C010F080
:1039D000E7C011F0E8C012F024EC0FF00FC028F09F
:1039E00010C029F011C02AF012C02BF0000E2C6E6E
:1039F000000E2D6ED20E2E6E430E2F6E39EC11F08E
:103A000028C0E1F029C0E2F02AC0E3F02BC0E4F0C6
:103A1000120003500410D8B410EF1DF012EF1DF087
:103A20001BEF1DF003500410D8A419EF1DF01BEF7D
:103A30001DF020EF1DF001500BEC22F06DEF1DF09A
:103A400020EE09F00350D9260450DA22DE50DE10B1
:103A5000D8B42DEF1DF02FEF1DF04AEF1DF020EE32
:103A600009F00350D9260450DA2210EE03F0035077
:103A7000E1260450E222DE50E65CE650800A096E40
:103A8000DE50800A0958D8B048EF1DF04AEF1DF00B
:103A90006DEF1DF020EE03F00350D9260450DA221A
:103AA000DECF05F0DDCF06F003C0D9FF04C0DAFF9A
:103AB000DECF07F0DDCF08F005500724D96E0650A1
:103AC0000820DA6E01C0DFFF20EE03F00350D92694
:103AD0000450DA22DE2A000EDD221200000E066EED
:103AE00004BE77EF1DF075EF1DF07DEF1DF0036C48
:103AF000041ED8B0042A010E066E02BE84EF1DF02B
:103B000082EF1DF08AEF1DF0016C021ED8B0022A70
:103B1000010E061A000E086E000E076E0350041008
:103B2000D8B495EF1DF097EF1DF0BFEF1DF0010E1B
:103B3000056E9FEF1DF0D89003360436052A04AEBB
:103B4000A4EF1DF0A6EF1DF09BEF1DF0D8900736F7
:103B500008360350015C04500258D8A0B2EF1DF0A3
:103B6000B4EF1DF0B9EF1DF00350015E0450025A8E
:103B70000780D89004320332052EA6EF1DF00650C0
:103B8000D8B4C5EF1DF0C7EF1DF0CBEF1DF0076CEB
:103B9000081ED8B0082A07C001F008C002F01200C1
:103BA0007DA0D5EF1DF0D7EF1DF0E1EF1DF013C0A4
:103BB0000AF014C00BF011C00CF012C00DF0C5ECEF
:103BC00020F016BEE6EF1DF0E8EF1DF0EEEF1DF061
:103BD00015C01AF016C01BF0F2EF1DF0000E1B6EA0
:103BE000000E1A6E000E196E000E186E04EF1EF015
:103BF000000E026E200E016E11C003F012C004F020
:103C000009EC1DF0184A192A1A50185C1950800A3C
:103C1000176E1B50800A1758D8A011EF1EF013EF33
:103C20001EF0F8EF1DF07DB018EF1EF01AEF1EF039
:103C300024EF1EF013C00AF014C00BF011C00CF0FA
:103C400012C00DF0C5EC20F013C001F014C002F05A
:103C50007AEC21F01A500124116E1B500220126ED2
:103C60001200000E066E02BE3AEF1EF038EF1EF094
:103C700040EF1EF0016C021ED8B0022A010E066E43
:103C800004BE47EF1EF045EF1EF04BEF1EF0036C35
:103C9000041ED8B0042A03500410D8B452EF1EF00A
:103CA00054EF1EF078EF1EF0010E056E5CEF1EF073
:103CB000D89003360436052A04AE61EF1EF063EF98
:103CC0001EF058EF1EF00350015C04500258D8A0BB
:103CD0006CEF1EF06EEF1EF072EF1EF00350015EEF
:103CE0000450025AD89004320332052E63EF1EF0BE
:103CF0000650D8B47EEF1EF080EF1EF084EF1EF069
:103D0000016C021ED8B0022A01C001F002C002F00C
:103D10001200000E0114096E000E02140A6E800ECD
:103D200003140B6E7F0E04140C6E09500A100B1056
:103D30000C10D8A49EEF1EF0A0EF1EF0A8EF1EF00E
:103D4000000E016E000E026E000E036E000E046E79
:103D5000000E0514096E000E06140A6E800E07147C
:103D60000B6E7F0E08140C6E09500A100B100C100D
:103D7000D8A4BDEF1EF0BFEF1EF0C7EF1EF0000E7F
:103D8000056E000E066E000E076E000E086E0550E2
:103D900001180FE1065002180CE10750031809E161
:103DA00008500418D8B4D7EF1EF0D9EF1EF0DCEF9E
:103DB0001EF0D890DDEF1EF0D8801200600E0001DA
:103DC000BE6F010EBF6F110EC06F060EC16FE5C052
:103DD000C2F0E6C0C3F0E7C0C4F0E8C0C5F0000E12
:103DE000C76FDF0EC66F2DEC20F0500E0001BE6FC6
:103DF000010EBF6F200EC06F060EC16FE1C0C2F092
:103E0000E2C0C3F0E3C0C4F0E4C0C5F0000EC76F69
:103E1000250EC66F2DEC20F0010E076E2E0E086EDB
:103E2000060E096E010E31EC1FF00A0E076E600ED1
:103E3000086E010E096E010E31EC1FF0010E076EC7
:103E4000380E086E060E096E020E31EC1FF00A0ED7
:103E5000076E500E086E010E096E020E31EC1FF057
:103E600012000B6E0B04D8A438EF1FF03AEF1FF0CE
:103E70003FEF1FF007507F0F0A6E4BEF1FF0020E4F
:103E80000B18D8A446EF1FF048EF1FF04BEF1FF0C0
:103E90000750BF0F0A6E0AC005F0000EE9EC21F0D2
:103EA00068EF1FF008C0F6FF09C0F7FFF86A050EBB
:103EB000F76403D00800F55005D0F6CFE1FFF7CF47
:103EC000E2FFE750056E010EE9EC21F0084A092AED
:103ED00008C0F6FF09C0F7FFF86A050EF76403D0C3
:103EE0000800F55005D0F6CFE1FFF7CFE2FFE7502D
:103EF0000009D8A47EEF1FF080EF1FF052EF1FF0F3
:103F00001200000E956E96929694000E836E849425
:103F10008492270E056EF50EE82EFED7052EFCD7EF
:103F200000F0000E066E300E58EC1BF00D0E056E04
:103F3000FC0EE82EFED7052EFCD7062A020E0664DC
:103F4000A4EF1FF0A6EF1FF093EF1FF0020E58EC46
:103F50001BF01A0EE82EFED700D0280E58EC1BF0EE
:103F60001A0EE82EFED700D0010E58EC1BF0060EFC
:103F7000056E300EE82EFED7052EFCD700D00C0EB5
:103F800058EC1BF01A0EE82EFED700D0060E58ECA7
:103F90001BF01A0EE82EFED700D01200BAC077F040
:103FA000BBC078F0000E0001EA6F000EE96FECEF85
:103FB0001FF0B8C0B2F0B9C0B3F0770EB46F000E06
:103FC000B56FBCC0B6F0BDC0B7F042EC09F000015F
:103FD000B251E927B351EA2377C0F6FF78C0F7FF63
:103FE0000800F5500009D8A4F8EF1FF0FAEF1FF011
:103FF000D9EF1FF0E9C0B8F0EAC0B9F0120003C071
:1040000007F004C008F001C009F002C00AF0075030
:10401000056E0850066E074A082A05C0F6FF06C05E
:10402000F7FFF86A09C0D9FF0AC0DAFF094A0A2A6D
:10403000050EF76403D00800F55005D0F6CFE1FF78
:10404000F7CFE2FFE750DF6EDF50D8A42AEF20F071
:104050002CEF20F007EF20F01200C20E0001C86F15
:10406000000EC96FBEC0CAF0BFC0CBF0000ECE6F4D
:10407000000ECD6F000ED46F000ED36FCA0EB86F56
:10408000000EB96FC0C0BAF0C1C0BBF0C80EBC6FA3
:10409000000EBD6FCEEC1FF00001CD51BE25D96ED4
:1040A000CE51BF21DA6E000EDF6E1200010E076ED8
:1040B000200E01180210D8B460EF20F062EF20F05B
:1040C0007BEF20F0F70E036EFF0E046E01C005F0CB
:1040D00002C006F00350052604500622065009E1EE
:1040E000050E055CD8A077EF20F079EF20F07BEF8C
:1040F00020F0000E076E07C001F0026A1200BF0E2A
:10410000096EFF0E0A6E07C00BF008C00CF00950D4
:104110000B260A500C220C5007E11A0E0B5CD8B08B
:1041200094EF20F096EF20F09DEF20F0200E071086
:10413000076E0850086EA1EF20F007C007F008C016
:1041400008F01200000E2C1A000E2D1A000E2E1A66
:10415000800E2F1A28C001F029C002F02AC003F0F7
:104160002BC004F02CC005F02DC006F02EC007F0C7
:104170002FC008F0C4EC0CF001C028F002C029F0F8
:1041800003C02AF004C02BF01200000E106E000EC7
:104190000F6ED6EF20F00EC001F0026A0CC003F0E3
:1041A0000DC004F009EC1DF00F4A102A0F500A242C
:1041B000D96E10500B20DA6EDF500E6E0E50D8A460
:1041C000E4EF20F0E6EF20F0CBEF20F0120014BE79
:1041D000F4EF20F0145006E11304D8B0F2EF20F011
:1041E000F4EF20F002EF21F013C015F014C016F028
:1041F000151E161E154A162A15C013F016C014F007
:1042000006EF21F013C013F014C014F0120006ECF6
:1042100022F0F8EC21F0FFEC21F081EC1FF095EC9E
:1042200021F09FEC1CF07EEC15F081B01AEF21F02C
:104230001CEF21F020EF21F0DEEC1EF00FEF21F05B
:10424000E2EC1AF00FEF21F000EF00F0BF0E036E6A
:10425000FF0E046E01C005F002C006F003500526F3
:104260000450062206500AE11A0E055CD8A03BEF66
:1042700021F03EEF21F0010E3FEF21F0000E016E24
:10428000026A12000150021003100410D8B44BEF60
:1042900021F04DEF21F055EF21F0000E011A000E34
:1042A000021A000E031A800E041A01C001F002C0A7
:1042B00002F003C003F004C004F01200D00E036E3D
:1042C000FF0E046E01C005F002C006F00350052683
:1042D0000450062206500AE10A0E055CD8A073EFCE
:1042E00021F076EF21F0010E77EF21F0000E016E44
:1042F000026A120001C003F002C004F082EF21F054
:10430000014A022A01C0D9FF02C0DAFFDF50D8A457
:104310008CEF21F08EEF21F080EF21F00350015C53
:10432000016E04500258026E1200820E016EDE0E03
:10433000E82EFED7012EFCD7C282C2B2A2EF21F036
:10434000A4EF21F09DEF21F0C4CFF9F00001FA6B4A
:10435000F951016EC350F96F01C0FAF0120001EE7D
:1043600000F0800EEE6AE806FDE100EED5F0260EC4
:10437000EE6AE806FDE17E6A7D6A7C6A7B6A7A6A9B
:10438000796A000EF86E000107EF21F00150030278
:10439000F3CF05F0F4CF06F001500402F3500626E7
:1043A00002500302F350062605C001F006C002F0D9
:1043B0001200026E025001140009D8B4E2EF21F09D
:1043C000E4EF21F0E7EF21F0010EE8EF21F0000E1D
:1043D0001200066E06B002D0849401D08484420E8E
:1043E000E82EFED700D08492055058EC1BF0120046
:1043F000010E936E000E946E000E826E1200010E7E
:10440000C26E0E0EC16E800EC06E1200000ED36E14
:08441000000E9B6E1200120069
:020000040020DA
:08000000FFFFFFFFFFFFFFFF00
:020000040030CA
:0E000000FF02191EFF8181FF0FC00FE00F40AD
:00000001FF
