:040000004AEF21F0B2
:10060000002020202020202020202020202020200A
:100610000025302E32662056202020202020200069
:1006200025303164204445432020202020200056DE
:100630006F6C743A202020004144433A202020006F
:10064000204C454420323A00204C454420343A00A6
:100650004C454420313A004C454420333A00253083
:10066000316400494E46004E414E00696E66006E90
:07067000616E006C660000E2
:10067800000E556E000E546E36C066F037C067F037
:1006880038C068F039C069F069BE4FEF03F04DEF2C
:1006980003F065EF03F0000E556E010E546E66C050
:1006A80001F067C002F068C003F069C004F0F7EC1D
:1006B80020F001C066F002C067F003C068F004C013
:1006C80069F0000E6D6E000E6C6E8EC058F08FC013
:1006D80059F054505510D8A474EF03F076EF03F096
:1006E8007DEF03F07EA47BEF03F07DEF03F097EF3F
:1006F80003F054505510D8A484EF03F086EF03F0AC
:100708008CEF03F0000E416E2B0E406E90EF03F05D
:10071800000E416E2D0E406E40C000F16C4A6D2AED
:100728005806D8A0590666C001F067C002F068C034
:1007380003F069C004F033EC1BF001040210D8A4E4
:10074800A8EF03F0AAEF03F0F2EF03F0BF0E3B6E41
:10075800FF0E3C6E3A503D6E3E6A3B503D263C5083
:100768003E223E5007E11A0E3D5CD8B0BEEF03F0C2
:10077800C0EF03F0CEEF03F0000E6C24016E010E03
:100788006D20026E630E036E060E046EB4EC1FF04D
:10079800DAEF03F0000E6C24016E010E6D20026E7C
:1007A8006B0E036E060E046EB4EC1FF0FD0E582699
:1007B800FF0E592234C011F035C012F0000E136E2E
:1007C800010E146E58C015F059C016F056EC1DF005
:1007D80011C034F012C035F030EF09F066C001F0F6
:1007E80067C002F068C003F069C004F033EC1BF086
:1007F80001500210D8A403EF04F005EF04F037EF1E
:1008080004F0BF0E3B6EFF0E3C6E3A503D6E3E6AE2
:100818003B503D263C503E223E5007E11A0E3D5CBF
:10082800D8B019EF04F01BEF04F029EF04F0000E24
:100838006C24016E010E6D20026E670E036E060EAB
:10084800046EB4EC1FF0DAEF03F0000E6C24016EB6
:10085800010E6D20026E6F0E036E060E046EB4EC70
:100868001FF0DAEF03F0000E6E6E000E6F6E800E52
:10087800706E3F0E716E000E6B6E000E6A6E66C073
:1008880001F067C002F068C003F069C004F0000E10
:10089800056E000E066E000E076E000E086E0FEC59
:1008A8001EF0D8B05AEF04F05CEF04F0DDEF04F06E
:1008B8007AEF04F06EC00FF06FC010F070C011F046
:1008C80071C012F0000E136E000E146E200E156E1D
:1008D800410E166EDDEC0EF00FC06EF010C06FF01A
:1008E80011C070F012C071F06A4A6B2A66C028F015
:1008F80067C029F068C02AF069C02BF0000E136E9B
:10090800000E146E200E156E410E166E6EC00FF09E
:100918006FC010F070C011F071C012F0DDEC0EF075
:100928000FC02CF010C02DF011C02EF012C02FF007
:10093800B1EC1AF0D8B0A3EF04F0A5EF04F05EEF25
:1009480004F0C4EF04F06EC001F06FC002F070C094
:1009580003F071C004F0000E056E000E066E200E46
:10096800076E410E086EF2EC10F001C06EF002C086
:100978006FF003C070F004C071F06A06D8A06B066F
:1009880066C028F067C029F068C02AF069C02BF05B
:100998006EC02CF06FC02DF070C02EF071C02FF01B
:1009A800B1EC1AF0D8A0DBEF04F0DDEF04F0A7EF0C
:1009B80004F03AC007F0086A34EC20F007505B6E88
:1009C8005BC05AF0670E5B18D8A4EDEF04F0EFEFA8
:1009D80004F016EF05F0000190519111D8A4F7EF3B
:1009E80004F0F9EF04F0FDEF04F0000E916F010E32
:1009F800906F91BF0AEF05F0915106E19005D8B0CC
:100A080008EF05F00AEF05F010EF05F0000E576E3D
:100A1800060E566E20EF05F090C056F091C057F0C4
:100A280020EF05F0000191BF1CEF05F01EEF05F067
:100A38000AEF05F010EF05F0670E5B18D8A427EF52
:100A480005F029EF05F058EF05F06BAE37EF05F02C
:100A5800FC0E6A5CFF0E6B58D8A035EF05F037EF37
:100A680005F056EF05F0FF0E3B6EFF0E3C6E56C0CC
:100A78003DF057C03EF03B503D263C503E226A5068
:100A88003D5C3E50800A3F6E6B50800A3F58D8A0AC
:100A980050EF05F052EF05F056EF05F0660E5A6E6E
:100AA80058EF05F0650E5A6E56C04CF057C04DF021
:100AB800670E5B18D8A463EF05F065EF05F075EFD6
:100AC80005F0660E5A18D8A46CEF05F06EEF05F025
:100AD80077EF05F06BBE75EF05F073EF05F077EF74
:100AE80005F04C4A4D2A660E5A18D8A47EEF05F038
:100AF80080EF05F0A0EF05F06BBE87EF05F085EFFE
:100B080005F093EF05F0000E6E6E000E6F6E800E0E
:100B1800706E3F0E716E000E6B6E000E6A6E670E81
:100B28005B18D8B49AEF05F09CEF05F0A0EF05F03C
:100B38006A504C266B504D22000E656E000E646E96
:100B480066C05CF067C05DF068C05EF069C05FF0C9
:100B58006EC04EF06FC04FF070C050F071C051F0D1
:100B680030EF06F05CC001F05DC002F05EC003F03B
:100B78005FC004F06EC005F06FC006F070C007F0EB
:100B880071C008F0F2EC10F001C01AF002C01BF0BE
:100B980003C01CF004C01DF0A5EC15F01AC060F0ED
:100BA8001BC061F01CC062F01DC063F060C001F0A2
:100BB80061C002F062C003F063C004F02EEC1AF0CA
:100BC80001C052F002C053F05CC028F05DC029F0AB
:100BD8005EC02AF05FC02BF06EC013F06FC014F037
:100BE80070C015F071C016F060C00FF061C010F051
:100BF80062C011F063C012F0DDEC0EF00FC02CF0F3
:100C080010C02DF011C02EF012C02FF057EC20F0BC
:100C180028C05CF029C05DF02AC05EF02BC05FF0F0
:100C28006EC001F06FC002F070C003F071C004F034
:100C3800000E056E000E066E200E076E410E086E41
:100C4800F2EC10F001C06EF002C06FF003C070F05B
:100C580004C071F0644A652A4C50645C6550800A8F
:100C68003B6E4D50800A3B58D8A03DEF06F03FEF51
:100C780006F0B6EF05F06EC00FF06FC010F070C050
:100C880011F071C012F0000E136E000E146EA00E5B
:100C9800156E400E166EDDEC0EF00FC060F010C041
:100CA80061F011C062F012C063F05CC028F05DC052
:100CB80029F05EC02AF05FC02BF060C02CF061C044
:100CC8002DF062C02EF063C02FF0B1EC1AF0D8B04E
:100CD80070EF06F072EF06F07CEF06F0000E606E23
:100CE800000E616E000E626E000E636EA4EF06F0D9
:100CF8005CC001F05DC002F05EC003F05FC004F0AC
:100D080060C005F061C006F062C007F063C008F07B
:100D18000FEC1EF0D8A093EF06F095EF06F0A4EFC5
:100D280006F052B09AEF06F09CEF06F0A4EF06F03A
:100D3800000E606E000E616E000E626E000E636E35
:100D480066C001F067C002F068C003F069C004F033
:100D580060C005F061C006F062C007F063C008F02B
:100D68007DEC0CF001C05CF002C05DF003C05EF0E9
:100D780004C05FF05CC028F05DC029F05EC02AF0B6
:100D88005FC02BF0000E136E000E146E200E156E51
:100D9800410E166E4EC00FF04FC010F050C011F04B
:100DA80051C012F0DDEC0EF00FC02CF010C02DF089
:100DB80011C02EF012C02FF0B1EC1AF0D8A0E7EF56
:100DC80006F0E9EF06F010EF07F06A4A6B2A4EC00A
:100DD8000FF04FC010F050C011F051C012F0000ECB
:100DE800136E000E146E200E156E410E166EDDEC9D
:100DF8000EF00FC04EF010C04FF011C050F012C0EE
:100E080051F0660E5A18D8A40CEF07F00EEF07F051
:100E180010EF07F04C4A4D2A4EC06EF04FC06FF0ED
:100E280050C070F051C071F0650E5A18D8B41FEF59
:100E380007F021EF07F027EF07F06AC04AF06BC010
:100E48004BF02BEF07F0000E4B6E000E4A6E000EB3
:100E5800496E000E486E000E476E000E466E000E7C
:100E6800656E000E646E24EF08F05CC001F05DC092
:100E780002F05EC003F05FC004F06EC005F06FC002
:100E880006F070C007F071C008F0F2EC10F001C075
:100E98001AF002C01BF003C01CF004C01DF0A5EC42
:100EA80015F01AC060F01BC061F01CC062F01DC0D4
:100EB80063F060C001F061C002F062C003F063C07B
:100EC80004F02EEC1AF001C052F002C053F07EB8C4
:100ED80070EF07F072EF07F08FEF07F052505310E2
:100EE800D8A479EF07F07BEF07F08FEF07F0670ED4
:100EF8005B18D8A482EF07F084EF07F08FEF07F0B4
:100F08004BBE8BEF07F089EF07F08FEF07F0464AEB
:100F1800472AD9EF07F048504910D8A496EF07F0B0
:100F280098EF07F0C2EF07F04BBE9FEF07F09DEF79
:100F380007F0C2EF07F0000E6C24D96E010E6D2089
:100F4800DA6E2E0EDF6E6C4A6D2A5806D8A0590646
:100F5800000E496E010E486EC2EF07F0000E6C24B9
:100F6800D96E010E6D20DA6E300EDF6E6C4A6D2A76
:100F78005806D8A059064606D8A047064650471036
:100F8800D8A4C9EF07F0CBEF07F0B2EF07F0000ED7
:100F98006C24D96E010E6D20DA6E5250300FDF6E60
:100FA8006C4A6D2A5806D8A059065CC028F05DC066
:100FB80029F05EC02AF05FC02BF06EC013F06FC03E
:100FC80014F070C015F071C016F060C00FF061C069
:100FD80010F062C011F063C012F0DDEC0EF00FC02B
:100FE8002CF010C02DF011C02EF012C02FF057ECCD
:100FF80020F028C05CF029C05DF02AC05EF02BC04C
:101008005FF06EC001F06FC002F070C003F071C0F5
:1010180004F0000E056E000E066E200E076E410EDF
:10102800086EF2EC10F001C06EF002C06FF003C061
:1010380070F004C071F04A06D8A04B06644A652ACD
:101048004C50645C6550800A3B6E4D50800A3B589A
:10105800D8B031EF08F033EF08F041EF08F06DBE7B
:101068003FEF08F06D5009E14B0E6C5CD8A03FEFE4
:1010780008F041EF08F039EF07F048504910D8A4BC
:1010880048EF08F04AEF08F05BEF08F07EA84FEF52
:1010980008F051EF08F05BEF08F0000E6C24D96EF1
:1010A800010E6D20DA6E2E0EDF6E6C4A6D2A000E70
:1010B8006C24D96E010E6D20DA6E000EDF6E650E9F
:1010C8005A18D8A46AEF08F06CEF08F0DEEF03F0C6
:1010D800000E656E4F0E646E000E6424D96E010E0C
:1010E8006520DA6E000EDF6E000E556E000E546E2F
:1010F8006BBE83EF08F081EF08F08BEF08F0000E6D
:10110800556E010E546E6A6C6B1ED8B06B2A000EB9
:10111800576E020E566EBBEF08F06406D8A065063F
:10112800000E6424D96E010E6520DA6E6AC001F0E3
:101138006BC002F0000E046E0A0E036EB7EC1DF0D1
:101148000150300FDF6E6AC001F06BC002F0000E74
:10115800046E0A0E036EF4EC1CF001C06AF002C0C3
:101168006BF05606D8A057065806D8A059066A50FC
:101178006B10D8A4C2EF08F0C4EF08F091EF08F0A4
:1011880057BED1EF08F0575006E15604D8B0CFEF5C
:1011980008F0D1EF08F091EF08F06406D8A06506D2
:1011A80054505510D8A4DBEF08F0DDEF08F0E3EF5A
:1011B80008F0000E436E2B0E426EE7EF08F0000EAB
:1011C800436E2D0E426E000E6424D96E010E65200A
:1011D800DA6E42C0DFFF5806D8A059066406D8A0C8
:1011E8006506BF0E3B6EFF0E3C6E3A503D6E3E6A82
:1011F8003B503D263C503E223E5009E11A0E3D5CD4
:10120800D8A009EF09F00BEF09F011EF09F0000E73
:10121800456E650E446E15EF09F0000E456E450EDD
:10122800446E000E6424D96E010E6520DA6E44C047
:10123800DFFF5806D8A05906000E6C24016E010E77
:101248006D20026E000E6424036E010E6520046E8C
:10125800B4EC1FF0DEEF03F0120074C0D9FF75C0C4
:10126800DAFFDECFF6FFDDCFF7FF0800F550250ADD
:10127800D8A441EF09F043EF09F061EF0CF074C016
:10128800D9FF75C0DAFFDE2A000EDD22000E00014C
:101298008F6F000E8E6F8EC07EF08FC07FF09069CA
:1012A8009169000ED56F000ED46FA1EF09F07E8012
:1012B80074C0D9FF75C0DAFFDE2A000EDD22A1EF67
:1012C80009F07E825CEF09F07E845CEF09F07E868F
:1012D8005CEF09F07E885CEF09F0000ED56F010E17
:1012E800D46FA1EF09F074C0D9FF75C0DAFFDECF63
:1012F800F6FFDDCFF7FF0800F550786E796A795070
:10130800000AD8B48AEF09F071EF09F07850200A82
:10131800D8B46BEF09F0030AD8B46EEF09F0080AE5
:10132800D8B468EF09F0060AD8B45BEF09F01D0AD3
:10133800D8B465EF09F071EF09F0D451D511D8B4DC
:10134800A8EF09F0AAEF09F077EF09F07EA0AFEF58
:1013580009F0B1EF09F0B2EF09F07E9274C0D9FF3D
:1013680075C0DAFFDECFF6FFDDCFF7FF0800F550D6
:101378002A0AD8A4C2EF09F0C4EF09F0EDEF09F08A
:1013880074C0D9FF75C0DAFFDE2A000EDD2276C0F0
:10139800D9FF77C0DAFFDFCF78F0020EDE26DFCF85
:1013A80079F0000EDD2278C0D9FF79C0DAFFDECFF0
:1013B8008EF0DDCF8FF08FBFE6EF09F0E4EF09F094
:1013C80023EF0AF07E808E6D8F1FD8B08F2B23EF0E
:1013D8000AF074C0D9FF75C0DAFFDECF08F0DDCFA0
:1013E80009F0FEEC18F008C08EF009C08FF004EF89
:1013F8000AF074C0D9FF75C0DAFFDE2A000EDD22BC
:10140800D00E786EFF0E796E74C0D9FF75C0DAFF02
:10141800DECFF6FFDDCFF7FF0800F5507A6E7B6A66
:1014280078507A2679507B227B5009E10A0E7A5C43
:10143800D8A021EF0AF023EF0AF0FDEF09F074C0FD
:10144800D9FF75C0DAFFDECFF6FFDDCFF7FF080062
:10145800F5502E0AD8A433EF0AF035EF0AF0A6EFBC
:101468000AF0000E0001916F000E906F74C0D9FF52
:1014780075C0DAFFDE2A000EDD2274C0D9FF75C000
:10148800DAFFDECFF6FFDDCFF7FF0800F5502A0AB6
:10149800D8A451EF0AF053EF0AF070EF0AF074C0C5
:1014A800D9FF75C0DAFFDE2A000EDD2276C0D9FF2B
:1014B80077C0DAFFDFCF78F0020EDE26DFCF79F0D3
:1014C800000EDD2278C0D9FF79C0DAFFDECF90F0B8
:1014D800DDCF91F0A6EF0AF074C0D9FF75C0DAFF2E
:1014E800DECF08F0DDCF09F0FEEC18F008C090F070
:1014F80009C091F087EF0AF074C0D9FF75C0DAFF10
:10150800DE2A000EDD22D00E786EFF0E796E74C0D2
:10151800D9FF75C0DAFFDECFF6FFDDCFF7FF080091
:10152800F5507A6E7B6A78507A2679507B227B5008
:1015380009E10A0E7A5CD8A0A4EF0AF0A6EF0AF037
:1015480080EF0AF074C0D9FF75C0DAFFDECFF6FF6E
:10155800DDCFF7FF0800F550076E086A34EC20F07D
:1015680007500001DA6FDA51D8B4BDEF0AF0BFEFC7
:101578000AF0F9EF0AF074C0D9FF75C0DAFFDECFC0
:1015880078F0DDCF79F0010E7826000E792278C048
:10159800F6FF79C0F7FF0800F550076E086A34ECCB
:1015A80020F007500001DB6FDB51D8B4DEEF0AF002
:1015B800E0EF0AF0F9EF0AF074C0D9FF75C0DAFF5E
:1015C800DECF78F0DDCF79F0020E7826000E792292
:1015D80078C0F6FF79C0F7FF0800F550076E086A73
:1015E80034EC20F007500001DC6F74C0D9FF75C0DF
:1015F800DAFFDECFF6FFDDCFF7FF0800F550640A0B
:10160800D8B409EF0BF00BEF0BF01DEF0BF074C023
:10161800D9FF75C0DAFFDECFF6FFDDCFF7FF080090
:10162800F550690AD8A41BEF0BF01DEF0BF05DEF26
:101638000BF074C0D9FF75C0DAFFDE2A000EDD2278
:1016480076C0D9FF77C0DAFFDFCF78F0020EDE264A
:10165800DFCF79F0000EDD2278C0D9FF79C0DAFF3C
:10166800DECFCCF0DDCFCDF0000ECDBFFF0ECE6FBC
:10167800CF6FD06FD16FD26FD36F72C01CF073C0B1
:101688001DF0CCC01EF0CDC01FF0CEC020F0CFC0E2
:1016980021F0D0C022F0D1C023F0D2C024F0D3C0B2
:1016A80025F035EC14F01CC072F01DC073F07CEF0F
:1016B8000CF0660EDA19D8A464EF0BF066EF0BF0A5
:1016C800A6EF0BF074C0D9FF75C0DAFFDECFF6FFC6
:1016D800DDCFF7FF0800F5CFDDF074C0D9FF75C086
:1016E800DAFFDE2A000EDD2276C0D9FF77C0DAFFE6
:1016F800DFCF78F0040EDE26DFCF79F0000EDD2292
:1017080078C0D9FF79C0DAFFDECFD6F0DECFD7F0C8
:10171800DECFD8F0DECFD9F072C034F073C035F028
:10172800D6C036F0D7C037F0D8C038F0D9C039F0B5
:10173800DDC03AF03CEC03F034C072F035C073F011
:101748007CEF0CF0DA0E016E000E026E730E036E63
:10175800060E046E000E066E020E056E24EC1CF0DA
:1017680001500210D8A4BBEF0BF0BDEF0BF02BEF2C
:101778000CF074C0D9FF75C0DAFFDECF78F0DDCF8A
:1017880079F0010E7826000E792278C0F6FF79C02C
:10179800F7FF0800F5CFDDF0BF0E786EFF0E796E0B
:1017A80074C0D9FF75C0DAFFDECFF6FFDDCFF7FFD3
:1017B8000800F5507A6E7B6A78507A2679507B2239
:1017C8007B5007E11A0E7A5CD8B0EDEF0BF0EFEF23
:1017D8000BF009EF0CF076C0D9FF77C0DAFFDFCF46
:1017E80078F0040EDE26DFCF79F0000EDD2278C017
:1017F800D9FF79C0DAFFDECFD6F0DECFD7F0DECF63
:10180800D8F0DECFD9F021EF0CF076C0D9FF77C041
:10181800DAFFDFCF78F0040EDE26DFCF79F0000E96
:10182800DD2278C0D9FF79C0DAFFDECFD6F0DECF6F
:10183800D7F0DECFD8F0DECFD9F0020E74C0D9FFD2
:1018480075C0DAFFDE26000EDD2290EF0BF074C0C3
:10185800D9FF75C0DAFFDECFF6FFDDCFF7FF08004E
:10186800F550250AD8A43BEF0CF03DEF0CF054EFEF
:101878000CF074C0D9FF75C0DAFFDE2A000EDD2235
:10188800000E026E250E016E72C003F073C004F0E4
:101898008FEC1CF0000E736E010E726E7CEF0CF074
:1018A80074C0D9FF75C0DAFFDE2A000EDD22000EF3
:1018B800736E000E726E7CEF0CF074C0D9FF75C0A9
:1018C800DAFFDECFF6FFDDCFF7FF0800F550016E37
:1018D800026A72C003F073C004F08FEC1CF074C08D
:1018E800D9FF75C0DAFFDE2A000EDD224EEF0CF0BC
:1018F80012000450800B0D6E045004240F6E03AECA
:1019080088EF0CF08AEF0CF08BEF0CF00F800F5083
:10191800D8B491EF0CF093EF0CF0A8EF0CF00F286F
:10192800D8A499EF0CF09BEF0CF0A3EF0CF0000E8D
:10193800016E000E026E000E036E000E046E038E22
:10194800000E046EB0EF0CF0000E016E000E026E79
:10195800000E036E000E046E0850800B0E6E0D50C4
:101968000E18D8B4BAEF0CF0BCEF0CF0BDEF0CF0C9
:101978000D8C085008240E6E07AEC5EF0CF0C7EFAB
:101988000CF0C8EF0CF00E800E50D8B4CEEF0CF06F
:10199800D0EF0CF0E5EF0CF00E28D8A4D6EF0CF041
:1019A800D8EF0CF0E0EF0CF0000E056E000E066E9E
:1019B800000E076E000E086E078E000E086EEDEF23
:1019C8000CF0000E056E000E066E000E076E000E7F
:1019D800086E0F500E5CD8B0F4EF0CF0F6EF0CF078
:1019E8001DEF0DF00DACFBEF0CF0FDEF0CF0FFEF71
:1019F8000CF0800E0D1A0FC010F00EC00FF010C0C2
:101A08000EF001C010F005C001F010C005F002C0D2
:101A180010F006C002F010C006F003C010F007C0B6
:101A280003F010C007F004C010F008C004F010C0A4
:101A380008F0000E106E0F500EC009F00A6A095E19
:101A4800000E0A5A0ABE32EF0DF00A5009E11A0ECA
:101A5800095CD8A032EF0DF034EF0DF06BEF0DF00C
:101A68000150021003100410D8A43DEF0DF040EF10
:101A78000DF0010E41EF0DF0000E106E000E016E1C
:101A8800000E026E000E036E000E046E0EC00FF004
:101A980074EF0DF010A053EF0DF055EF0DF05BEF64
:101AA8000DF0D89010300109106E5DEF0DF0D89050
:101AB800103201A062EF0DF064EF0DF065EF0DF04C
:101AC800108E043404320332023201320F2A0E50CF
:101AD8000F5CD8A072EF0DF074EF0DF04EEF0DF023
:101AE8000DBC79EF0DF07BEF0DF0BBEF0DF00F5053
:101AF800D8A481EF0DF083EF0DF08DEF0DF0000EFF
:101B0800016E000E026E000E036E000E046EDCEF16
:101B18000EF00550012606500222075003220850F5
:101B2800042204A09AEF0DF09CEF0DF048EF0EF0A0
:101B380010A0A1EF0DF0A3EF0DF0A9EF0DF0D890D4
:101B480010300109106EABEF0DF0D890103201A0E3
:101B5800B0EF0DF0B2EF0DF0B3EF0DF0108E0434CE
:101B680004320332023201320F2A48EF0EF00550D8
:101B7800015C06500258075003580450800A096E49
:101B88000850800A0958D8B0CCEF0DF0CEEF0DF010
:101B9800F9EF0DF00150055C096E025006580A6E07
:101BA800035007580B6E045008580C6EFF0E09249A
:101BB800016EFF0E0A20026EFF0E0B20036EFF0E51
:101BC8000C20046E800E0D1A106C1050D8A4EFEF84
:101BD8000DF0F1EF0DF001EF0EF0010E0126000EF1
:101BE80002220322042201EF0EF00550015E065086
:101BF800025A0750035A0850045A015002100310A1
:101C08000410D8A40AEF0EF00CEF0EF041EF0EF01E
:101C18001050D8A412EF0EF014EF0EF041EF0EF0B2
:101C2800000E016E000E026E000E036E000E046EB2
:101C3800DCEF0EF0D890013602360336043610AECB
:101C480028EF0EF02AEF0EF02BEF0EF0018010A017
:101C580030EF0EF032EF0EF036EF0EF0D88010367F
:101C680038EF0EF0D89010360F50D8B43EEF0EF083
:101C780040EF0EF041EF0EF00F0603AE46EF0EF008
:101C880048EF0EF01EEF0EF0000E0E6E10AE4FEF86
:101C98000EF051EF0EF069EF0EF010C009F07F0E54
:101CA8000916D8B45AEF0EF05CEF0EF060EF0EF0A4
:101CB800010E0E6E69EF0EF001A065EF0EF067EFF2
:101CC8000EF069EF0EF05CEF0EF00E50D8B46FEF27
:101CD8000EF071EF0EF09CEF0EF0010E0126000ED3
:101CE80002220322042204A07CEF0EF07EEF0EF005
:101CF8009CEF0EF001C009F002C00AF003C00BF01F
:101D080004C00CF00C340C320B320A32093209C010
:101D180001F00AC002F00BC003F00CC004F00F2859
:101D2800D8B499EF0EF09BEF0EF09CEF0EF00F2A4F
:101D38000F28D8B4A2EF0EF0A4EF0EF0ACEF0EF01F
:101D48000F50D8A4AAEF0EF0ACEF0EF0BEEF0EF0D5
:101D5800000E016E000E026E000E036E000E046E81
:101D68000F50D8A4BAEF0EF0BCEF0EF0BEEF0EF095
:101D7800000E0D6E0FA0C3EF0EF0C5EF0EF0C8EF0A
:101D88000EF0038EC9EF0EF0039ED8900F30046E4C
:101D98000DAED1EF0EF0D3EF0EF0D4EF0EF0048EAF
:101DA80001C001F002C002F003C003F004C004F057
:101DB80012001250800B1B6E12501224216E11AEAD
:101DC800E8EF0EF0EAEF0EF0EBEF0EF02180215075
:101DD800D8B4F1EF0EF0F3EF0EF006EF0FF0212874
:101DE800D8A4F9EF0EF0FBEF0EF003EF0FF0000EA2
:101DF8000F6E000E106E000E116E000E126E118E18
:101E08000EEF0FF0000E0F6E000E106E000E116E2A
:101E1800000E126E1650800B1B1A16501624206ED8
:101E280015AE19EF0FF01BEF0FF01CEF0FF020802D
:101E38002050D8B422EF0FF024EF0FF037EF0FF057
:101E48002028D8A42AEF0FF02CEF0FF034EF0FF072
:101E5800000E136E000E146E000E156E000E166E38
:101E6800158E3FEF0FF0000E136E000E146E000E6D
:101E7800156E000E166E2050D8B445EF0FF047EFE0
:101E88000FF04FEF0FF02150D8A44DEF0FF04FEFA8
:101E98000FF059EF0FF0000E0F6E000E106E000ECF
:101EA800116E000E126EF1EF10F015500F02F3CF05
:101EB80026F0F4CF27F026501C6E1D6A1E6A1F6A92
:101EC8002750226E236A246A256A14501002F3CF21
:101ED80026F0F4CF27F026501C26000E1D221E22C5
:101EE8001F2227502226000E2322242225221350A7
:101EF8001102F3CF26F0F4CF27F026501C26000E4F
:101F08001D221E221F2227502226000E23222422B1
:101F180025221EC01FF01DC01EF01CC01DF01C6A2B
:101F280013501002F3CF26F0F4CF27F026501C26CA
:101F380027501D22000E1E22000E1F2214500F02D1
:101F4800F3CF26F0F4CF27F026501C2627501D2269
:101F5800000E1E22000E1F221EC01FF01DC01EF004
:101F68001CC01DF01C6A13500F02F3CF26F0F4CFEB
:101F780027F026501C2627501D22000E1E22000E78
:101F88001F2215501002F3CF26F0F4CF27F0265069
:101F9800222627502322000E2422000E2522145028
:101FA8001102F3CF26F0F4CF27F02650222627502F
:101FB8002322000E2422000E252215501102F3CFF1
:101FC80026F0F4CF27F02650176E2750186E196A9E
:101FD8001A6A19C01AF018C019F017C018F0176A51
:101FE8001750222618502322195024221A5025222D
:101FF8001CC017F01DC018F01EC019F01FC01AF041
:10200800190E0CEF10F0D8901A3219321832173214
:10201800E82E07EF10F017502226185023221950E7
:1020280024221A5025221EC01FF01DC01EF01CC0FD
:102038001DF01C6A205021C017F0186A1726000EE0
:102048001822820E1724266EFF0E1820276E42EFE4
:1020580010F0D89022362336243625361FAE37EFB7
:1020680010F039EF10F03AEF10F02280D8901C36BB
:102078001D361E361F362606D8A0270624AE47EF83
:1020880010F049EF10F02DEF10F0000E206E1FAE8B
:1020980050EF10F052EF10F076EF10F0FF0E1C1416
:1020A800176EFF0E1D14186EFF0E1E14196E7F0E8C
:1020B8001F141A6E1750181019101A10D8B467EF99
:1020C80010F069EF10F06DEF10F0010E206E76EF52
:1020D80010F022A072EF10F074EF10F076EF10F00D
:1020E80069EF10F02050D8B47CEF10F07EEF10F0BC
:1020F800A2EF10F0010E2226000E23222422252210
:1021080025A089EF10F08BEF10F0A2EF10F022C09D
:1021180017F023C018F024C019F025C01AF01A349B
:102128001A3219321832173217C022F018C023F0A9
:1021380019C024F01AC025F0264A272A27BEADEF79
:1021480010F0275008E12628D8A0ADEF10F0AFEF27
:1021580010F0B9EF10F0000E226E000E236E800E04
:10216800246E7F0E256EE7EF10F027BEC6EF10F045
:10217800275006E12604D8B0C4EF10F0C6EF10F0DF
:10218800D2EF10F0000E226E000E236E000E246EA9
:10219800000E256E000E1B6EE7EF10F026C021F032
:1021A800FF0E2216FF0E23167F0E2416000E25168C
:1021B80021A0E1EF10F0E3EF10F0E4EF10F0248E2F
:1021C800D8902130256E1B50251222C00FF023C055
:1021D80010F024C011F025C012F012000450800B3A
:1021E800116E04500424186E03AEFDEF10F0FFEFDB
:1021F80010F000EF11F018801850D8B406EF11F065
:1022080008EF11F01DEF11F01828D8A40EEF11F007
:1022180010EF11F018EF11F0000E016E000E026EB3
:10222800000E036E000E046E038E000E046E25EF82
:1022380011F0000E016E000E026E000E036E000E0D
:10224800046E0850800B111A08500824196E07AE46
:1022580030EF11F032EF11F033EF11F0198019500F
:10226800D8B439EF11F03BEF11F050EF11F0192805
:10227800D8A441EF11F043EF11F04BEF11F0000E2D
:10228800056E000E066E000E076E000E086E078EB5
:10229800000E086E58EF11F0000E056E000E066E67
:1022A800000E076E000E086E055006100710081085
:1022B800D8A461EF11F063EF11F07BEF11F0000E7D
:1022C800016E000E026E000E036E000E046E800E8C
:1022D80003127F0E04121150041201C001F002C053
:1022E80002F003C003F004C004F0BEEF12F018506F
:1022F800D8A481EF11F083EF11F08DEF11F0000EEB
:10230800016E000E026E000E036E000E046EBEEF2C
:1023180012F0195018C009F00A6A095E000E0A5A2C
:102328007F0E0924126E000E0A20136E01C00DF0F4
:1023380002C00EF003C00FF004C010F0000E016ED2
:10234800000E026E000E036E000E046E000E146E78
:10235800000E156E000E166E000E176E000E196E2A
:10236800EEEF11F01950D8B4BCEF11F0BEEF11F038
:10237800D5EF11F0D8900D360E360F361036D890AE
:10238800013602360336043617AECDEF11F0CFEF23
:1023980011F0D0EF11F00180D890143615361636AA
:1023A800173605500D5C06500E5807500F58085048
:1023B8001058D8A0E2EF11F0E4EF11F0EDEF11F0B2
:1023C800178C05500D5E06500E5A07500F5A0850CC
:1023D800105A192A190E1964F4EF11F0F6EF11F0DA
:1023E800B6EF11F00D500E100F101010D8B4FFEF0B
:1023F80011F001EF12F019EF12F0148019EF12F03A
:10240800D890013602360336043617AE0EEF12F0B6
:1024180010EF12F011EF12F00180D8901436153633
:10242800163617361206D8A0130603AE1EEF12F0A2
:1024380020EF12F004EF12F0000E196E17AE27EF1E
:1024480012F029EF12F04DEF12F0FF0E1414096E7E
:10245800FF0E15140A6EFF0E16140B6E7F0E17145E
:102468000C6E09500A100B100C10D8B43EEF12F085
:1024780040EF12F044EF12F0010E196E4DEF12F01A
:1024880001A049EF12F04BEF12F04DEF12F040EFC0
:1024980012F01950D8B453EF12F055EF12F079EF4B
:1024A80012F0010E0126000E02220322042204A0CB
:1024B80060EF12F062EF12F079EF12F001C009F04C
:1024C80002C00AF003C00BF004C00CF00C340C324C
:1024D8000B320A32093209C001F00AC002F00BC0FF
:1024E80003F00CC004F0124A132A13BE84EF12F052
:1024F800135008E11228D8A084EF12F086EF12F0EA
:1025080091EF12F0000E136E1268000E016E000EAD
:10251800026E000E036E000E046E13BE9EEF12F0E4
:10252800135006E11204D8B09CEF12F09EEF12F09F
:10253800ACEF12F0000E136E000E126E000E016E5C
:10254800000E026E000E036E000E046E000E116E79
:1025580012C018F018A0B3EF12F0B5EF12F0B8EFF0
:1025680012F0038EB9EF12F0039ED8901830046E63
:102578006FEF11F0120088C001F089C002F08AC024
:1025880003F08BC004F0000E056E000E066E000E00
:10259800076E000E086E0FEC1EF0D8A0D6EF12F0F2
:1025A800D8EF12F0EBEF12F0000E0001996F000E59
:1025B800986F000E976F000E966F000E956F000EC5
:1025C800946F000E936F000E926FE6EF13F0000EFB
:1025D800286E000E296E000E2A6E000E2B6E88C023
:1025E8002CF089C02DF08AC02EF08BC02FF0B1ECF2
:1025F8001AF0D8B002EF13F004EF13F030EF13F035
:10260800000E286E000E296EA00E2A6E3F0E2B6E4D
:1026180088C02CF089C02DF08AC02EF08BC02FF016
:10262800B1EC1AF0D8A01BEF13F01DEF13F030EF48
:1026380013F0000E0001996F010E986F000E976F4E
:10264800000E966F000E956F000E946F000E936F3C
:10265800000E926FE6EF13F0000E286E000E296E42
:10266800A00E2A6E3F0E2B6E88C02CF089C02DF06C
:102678008AC02EF08BC02FF0B1EC1AF0D8B047EF1B
:1026880013F049EF13F075EF13F0000E286E000EEB
:10269800296E200E2A6E400E2B6E88C02CF089C041
:1026A8002DF08AC02EF08BC02FF0B1EC1AF0D8A014
:1026B80060EF13F062EF13F075EF13F0000E0001F6
:1026C800996F010E986F000E976F010E966F000EAE
:1026D800956F000E946F000E936F000E926FE6EFE9
:1026E80013F0000E286E000E296E200E2A6E400E82
:1026F8002B6E88C02CF089C02DF08AC02EF08BC0BC
:102708002FF0B1EC1AF0D8B08CEF13F08EEF13F075
:10271800BAEF13F0000E286E000E296E700E2A6EA6
:10272800400E2B6E88C02CF089C02DF08AC02EF088
:102738008BC02FF0B1EC1AF0D8A0A5EF13F0A7EFDB
:1027480013F0BAEF13F0000E0001996F010E986FA5
:10275800000E976F010E966F000E956F010E946F25
:10276800000E936F000E926FE6EF13F0000E286EC6
:10277800000E296E700E2A6E400E2B6E88C02CF04B
:1027880089C02DF08AC02EF08BC02FF0B1EC1AF062
:10279800D8B0D1EF13F0D3EF13F0E6EF13F0000E3B
:1027A8000001996F010E986F000E976F010E966FDA
:1027B800000E956F010E946F000E936F010E926FCD
:1027C800E6EF13F0000198519911D8B4EEEF13F029
:1027D800F2EF13F0346A342AF3EF13F0346A8250BC
:1027E8003418FE0B3418826E000196519711D8B434
:1027F80000EF14F004EF14F0346A342A05EF14F0F3
:10280800346A344682503418FD0B3418826E000145
:1028180094519511D8B413EF14F017EF14F0346AEB
:10282800342A18EF14F0346A344634468250341887
:10283800FB0B3418826E000192519311D8B427EF24
:1028480014F02BEF14F0346A342A2CEF14F0346AA5
:1028580034463446344682503418F70B3418826EA6
:1028680012001EC036F01FC037F020C038F021C05B
:1028780039F022C03AF023C03BF024C03CF025C018
:102888003DF03DBE4AEF14F04DEF14F0010E4EEF4F
:1028980014F0000E346E356A34503510D8B457EF42
:1028A80014F059EF14F069EF14F03D1E3C1E3B1E66
:1028B8003A1E391E381E371E366C000E3722382253
:1028C80039223A223B223C223D22000191BF6FEF80
:1028D80014F071EF14F072EF14F07E9291BF7FEF55
:1028E80014F0915106E19005D8B07DEF14F07FEF18
:1028F80014F085EF14F0000E316E010E306E89EF82
:1029080014F090C030F091C031F08EC032F08FC01A
:1029180033F034503510D8A494EF14F096EF14F037
:102928009DEF14F07EA49BEF14F09DEF14F0A0EF40
:1029380014F03206D8A03306000E3F6E4F0E3E6EDE
:10294800000E01014F6F25EF15F03E06D8A03F0697
:10295800000E3E24D96E010E3F20DA6E36C001F01B
:1029680037C002F038C003F039C004F03AC005F0AF
:102978003BC006F03CC007F03DC008F00A0E096EE7
:10298800000E0A6E000E0B6E000E0C6E000E0D6E21
:10299800000E0E6E000E0F6E000E106E4CEC18F04E
:1029A80001C026F002C027F003C028F004C029F0B7
:1029B80005C02AF006C02BF007C02CF008C02DF087
:1029C80026C013F028C014F09CEC20F01350300FF0
:1029D800DF6E3006D8A031063206D8A0330636C0DE
:1029E80001F037C002F038C003F039C004F03AC033
:1029F80005F03BC006F03CC007F03DC008F00A0EE9
:102A0800096E000E0A6E000E0B6E000E0C6E000EA4
:102A18000D6E000E0E6E000E0F6E000E106E88EC1E
:102A280017F001C036F002C037F003C038F004C018
:102A380039F005C03AF006C03BF007C03CF008C0CA
:102A48003DF03FBE30EF15F03F5008E13E04D8A0FE
:102A580030EF15F032EF15F062EF15F03650371001
:102A6800381039103A103B103C103D10D8A43FEFF5
:102A780015F041EF15F0A9EF14F031BE4EEF15F047
:102A8800315006E13004D8B04CEF15F04EEF15F098
:102A9800A9EF14F033BE59EF15F0335008E13204B2
:102AA800D8A059EF15F05BEF15F062EF15F07EB284
:102AB80060EF15F062EF15F0A9EF14F034503510FF
:102AC800D8A469EF15F06BEF15F072EF15F07EA43E
:102AD80070EF15F072EF15F090EF15F03E06D8A0E4
:102AE8003F0634503510D8A47CEF15F07EEF15F072
:102AF80084EF15F0000E2F6E2B0E2E6E88EF15F05A
:102B0800000E2F6E2D0E2E6E000E3E24D96E010E75
:102B18003F20DA6E2EC0DFFF1CC011F01DC012F07E
:102B2800000E3E24136E010E3F20146E32C015F0C5
:102B380033C016F056EC1DF011C01CF012C01DF089
:102B4800120080C02AF081C02BF082C02CF083C014
:102B58002DF01AC02AF01BC02BF01CC02CF01DC091
:102B68002DF0810E1E6EFF0E1F6E2AC020F02BC0A6
:102B780021F02CC022F02DC023F0180EC9EF15F05B
:102B8800D8902332223221322032E82EC4EF15F0B9
:102B980020501E24286E000E1F20296E29BEDEEF4D
:102BA80015F0295009E1170E285CD8A0DEEF15F0C2
:102BB800E0EF15F0EAEF15F01AC01AF01BC01BF091
:102BC8001CC01CF01DC01DF0ADEF16F029BEEFEFC4
:102BD80015F0F1EF15F061EF16F028C01EF0FF0EAA
:102BE8001F6EFF0E206E7F0E216E000E226E1E6677
:102BF80000EF16F008EF16F022342232213220328C
:102C08001F321E2EFBEF15F01FC024F020C025F048
:102C180021C026F022C027F024502A141E6E255009
:102C28002B141F6E26502C14206E27502D14216E45
:102C38001E501F1020102110D8A425EF16F027EFE2
:102C480016F029EF16F0E0EF15F02AC01EF02BC0A1
:102C58001FF02CC020F02DC021F0200E39EF16F007
:102C6800D890213220321F321E32E82E34EF16F06F
:102C78001E501F1020102110D8B445EF16F047EF52
:102C880016F04FEF16F024502A2625502B222650F6
:102C98002C2227502D22241C1E6E251C1F6E261C3C
:102CA800206E271C216E1E502A161F502B162050EE
:102CB8002C1621502D16A5EF16F02AC01EF02BC099
:102CC8001FF02CC020F02DC021F0200E71EF16F05F
:102CD800D890213220321F321E32E82E6CEF16F0C7
:102CE8001E501F1020102110D8A47DEF16F07FEF82
:102CF80016F089EF16F0000E2A6E000E2B6E000EED
:102D08002C6E000E2D6EA5EF16F0D8902A341E6E8C
:102D18002B341F6E2C34206E2D34216E1E501F1044
:102D280020102110D8B49BEF16F09DEF16F0A5EFF8
:102D380016F0000E2A6E000E2B6E800E2C6EBF0E43
:102D48002D6E2AC01AF02BC01BF02CC01CF02DC011
:102D58001DF01200096E0950D8B4B5EF16F0B7EFA0
:102D680016F0D9EF16F004BEBEEF16F0BCEF16F061
:102D7800D9EF16F001C005F002C006F003C007F055
:102D880004C008F0051E061E071E081E052A000EB0
:102D980006220722082205C00BF006C00CF007C067
:102DA8000DF008C00EF0E1EF16F001C00BF002C004
:102DB8000CF003C00DF004C00EF001500210031017
:102DC8000410D8A4EAEF16F0ECEF16F0F6EF16F0C0
:102DD800000E016E000E026E000E036E000E046EF1
:102DE80087EF17F0960E0A6E00EF17F00A2AD890B0
:102DF8000E320D320C320B32000E0B14056E000E23
:102E08000C14066E000E0D14076EFE0E0E14086EDE
:102E18000550061007100810D8A415EF17F017EF83
:102E280017F0FAEF16F025EF17F00A2A010E0B2615
:102E3800000E0C220D220E22D8900E320D320C32CA
:102E48000B32000E0B14056E000E0C14066E000EED
:102E58000D14076EFF0E0E14086E055006100710AD
:102E68000810D8A43AEF17F03CEF17F019EF17F055
:102E780044EF17F00A06D8900B360C360D360E368E
:102E88000DBE49EF17F04BEF17F053EF17F0020E96
:102E98000A6051EF17F053EF17F03EEF17F00AB042
:102EA80058EF17F05AEF17F05BEF17F00D9ED89018
:102EB8000A320AC005F0066A076A086A05C008F0FF
:102EC800076A066A056A05500B1206500C1207506D
:102ED8000D1208500E120950D8B475EF17F077EF9D
:102EE80017F07FEF17F004BE7EEF17F07CEF17F0B6
:102EF8007FEF17F00E8E0BC001F00CC002F00DC072
:102F080003F00EC004F01200000E126E10BE91EF16
:102F180017F08FEF17F0A3EF17F0101E0F1E0E1EFD
:102F28000D1E0C1E0B1E0A1E096C000E0A220B2217
:102F38000C220D220E220F221022010E126E08BE44
:102F4800AAEF17F0A8EF17F0BCEF17F0081E071E3E
:102F5800061E051E041E031E021E016C000E022220
:102F6800032204220522062207220822010E121A31
:102F780020EE13F0070EDE6AE806FDE209500A109B
:102F88000B100C100D100E100F101010D8B4CFEF3E
:102F980017F0D1EF17F023EF18F0010E116EDFEFE5
:102FA80017F0D89009360A360B360C360D360E3621
:102FB8000F361036112A10AEE4EF17F0E6EF17F0CF
:102FC800D5EF17F0D890133614361536163617364F
:102FD800183619361A360950015C0A5002580B5037
:102FE80003580C5004580D5005580E5006580F50F1
:102FF800075810500858D8A004EF18F006EF18F03A
:1030080017EF18F00950015E0A50025A0B50035A84
:103018000C50045A0D50055A0E50065A0F50075AB4
:103028001050085A1380D89010320F320E320D32D9
:103038000C320B320A320932112EE6EF17F0125019
:10304800D8B429EF18F02BEF18F03BEF18F01A1E40
:10305800191E181E171E161E151E141E136C000EA0
:103068001422152216221722182219221A2213C0F6
:1030780001F014C002F015C003F016C004F017C028
:1030880005F018C006F019C007F01AC008F01200C1
:10309800000E126E08BE55EF18F053EF18F067EFE8
:1030A80018F0081E071E061E051E041E031E021E1B
:1030B800016C000E022203220422052206220722A6
:1030C8000822010E126E10BE6EEF18F06CEF18F0A9
:1030D8007EEF18F0101E0F1E0E1E0D1E0C1E0B1E6E
:1030E8000A1E096C000E0A220B220C220D220E2247
:1030F8000F22102209500A100B100C100D100E1080
:103108000F101010D8B48BEF18F08DEF18F0D5EF22
:1031180018F0010E116E9BEF18F0D89009360A3698
:103128000B360C360D360E360F361036112A10AE09
:10313800A0EF18F0A2EF18F091EF18F00950015C19
:103148000A5002580B5003580C5004580D5005589B
:103158000E5006580F50075810500858D8A0B7EF0F
:1031680018F0B9EF18F0C9EF18F00950015E0A50CD
:10317800025A0B50035A0C50045A0D50055A0E505F
:10318800065A0F50075A1050085AD89010320F326A
:103198000E320D320C320B320A320932112EA2EFE6
:1031A80018F01250D8B4DBEF18F0DDEF18F0EDEF9F
:1031B80018F0081E071E061E051E041E031E021E0A
:1031C800016C000E02220322042205220622072295
:1031D800082201C001F002C002F003C003F004C0DD
:1031E80004F005C005F006C006F007C007F008C0E7
:1031F80008F01200000E116E000E106E000E0F6E19
:10320800000E0E6E0AEF19F0084A092A08C0F6FFE8
:1032180009C0F7FF0800F550200AD8B416EF19F0D6
:1032280018EF19F008EF19F0F70E0A6EFF0E0B6E83
:1032380008C0F6FF09C0F7FF0800F5500C6E0D6ACC
:103248000A500C260B500D220D5009E1050E0C5C9E
:10325800D8A031EF19F033EF19F008EF19F03DEF6E
:1032680019F0000E0F6E010E0E6E084A092A72EF51
:1032780019F008C0F6FF09C0F7FF0800F5500A6EFC
:103288000B6A0B50000AD8B44CEF19F072EF19F022
:103298000A502B0AD8B439EF19F0060AD8B435EF1A
:1032A80019F072EF19F010C001F011C002F0000E11
:1032B800046E0A0E036E70EC21F008C0F6FF09C018
:1032C800F7FF0800F550015E000E025A300E012487
:1032D800106E000E0220116E39EF19F0D00E0A6E32
:1032E800FF0E0B6E08C0F6FF09C0F7FF0800F55087
:1032F8000C6E0D6A0A500C260B500D220D5009E178
:103308000A0E0C5CD8A08BEF19F08DEF19F057EF6F
:1033180019F00E500F10D8A494EF19F096EF19F089
:10332800A4EF19F010C00AF011C00BF00A1E0B1E12
:103338000A4A0B2A0AC008F00BC009F0A8EF19F0D6
:1033480010C008F011C009F01200C40E0001E46FAB
:10335800000EE56F5E0EE66F060EE76F98C0E8F0A8
:1033680099C0E9F0E2EC1FF0BC0E0001E46F000E1A
:10337800E56F5E0EE66F060EE76F96C0E8F097C041
:10338800E9F0E2EC1FF0B40E0001E46F000EE56F07
:103398005E0EE66F060EE76F94C0E8F095C0E9F0A0
:1033A800E2EC1FF0AC0E0001E46F000EE56F5E0E5C
:1033B800E66F060EE76F92C0E8F093C0E9F0E2EC22
:1033C8001FF0010E076E500E086E060E096E010EF4
:1033D80064EC1EF0070E076EC40E086E000E096E30
:1033E800010E64EC1EF0080E076E400E086E060E05
:1033F800096E010E64EC1EF00F0E076EBC0E086E0F
:10340800000E096E010E64EC1EF0010E076E570ED9
:10341800086E060E096E020E64EC1EF0070E076EAB
:10342800B40E086E000E096E020E64EC1EF0080E53
:10343800076E480E086E060E096E020E64EC1EF04A
:103448000F0E076EAC0E086E000E096E020E64ECCD
:103458001EF01200033404340A6E0A50D8A437EF61
:103468001AF039EF1AF043EF1AF0000E016E000E51
:10347800026E000E036E000E046EB0EF1AF001C06B
:1034880005F002C006F003C007F004C008F0200EE3
:1034980053EF1AF0D8900832073206320532E82E78
:1034A8004EEF1AF00550096E038EFF0E0116FF0E3F
:1034B8000216FF0E0316000E0416960E0A5E0ABECA
:1034C8006AEF1AF068EF1AF080EF1AF00A50800AD3
:1034D800970FD8B072EF1AF074EF1AF076EF1AF06F
:1034E80039EF1AF0D89004320332023201320A3E20
:1034F80076EF1AF098EF1AF01F0E0A6486EF1AF0AA
:1035080088EF1AF090EF1AF039EF1AF0D8900136D8
:103518000236033604360A060A50D8A496EF1AF083
:1035280098EF1AF08AEF1AF00950D8B49EEF1AF003
:10353800A0EF1AF0A8EF1AF0041E031E021E016C79
:10354800000E02220322042201C001F002C002F090
:1035580003C003F004C004F01200000E2814306EFB
:10356800000E2914316E800E2A14326E7F0E2B1431
:10357800336E3050311032103310D8A4C6EF1AF021
:10358800C8EF1AF0D0EF1AF0000E286E000E296E60
:10359800000E2A6E000E2B6E000E2C14306E000EDC
:1035A8002D14316E800E2E14326E7F0E2F14336E52
:1035B8003050311032103310D8A4E5EF1AF0E7EF8D
:1035C8001AF0EFEF1AF0000E2C6E000E2D6E000EA2
:1035D8002E6E000E2F6E2BAEF4EF1AF0F6EF1AF0E7
:1035E800FFEF1AF0286C291ED8B0292A2A1ED8B055
:1035F8002A2A800E2B562FAE04EF1BF006EF1BF085
:103608000FEF1BF02C6C2D1ED8B02D2A2E1ED8B013
:103618002E2A800E2F56000E281A000E291A000E88
:103628002A1A800E2B1A000E2C1A000E2D1A000EC4
:103638002E1A800E2F1A2C50285C2D5029582E50E7
:103648002A582F502B58D8B02CEF1BF02EEF1BF018
:1036580031EF1BF0D89032EF1BF0D880120084C0F5
:103668000BF085C00CF086C00DF087C00EF001C0CD
:103678000BF002C00CF003C00DF004C00EF00BC03C
:1036880005F00CC006F00DC007F00EC008F0180ECB
:1036980053EF1BF0D8900832073206320532E82E75
:1036A8004EEF1BF00550096E0A6A09500A10D8A49B
:1036B80060EF1BF062EF1BF082EF1BF0D8900B3429
:1036C800056E0C34066E0D34076E0E34086E055008
:1036D800061007100810D8A474EF1BF076EF1BF043
:1036E8007CEF1BF0000E026E020E016EB1EF1BF0B4
:1036F800000E026E030E016EB1EF1BF009280A10CE
:10370800D8A489EF1BF08BEF1BF0ADEF1BF00BC0BB
:1037180005F00CC006F00DC007F00EC008F0090E49
:10372800D8900536063607360836E82E94EF1BF093
:103738000550061007100810D8B4A5EF1BF0A8EF25
:103748001BF0010EA9EF1BF0000E016E026AB1EF2B
:103758001BF0000E026E040E016E1200046E100EB5
:10376800016E045083EC21F0036E033A8350031872
:10377800EF0B0318836E200E016E045083EC21F0CA
:10378800036E033A034683500318DF0B0318836E56
:10379800400E016E045083EC21F0036E033A034699
:1037A800034683500318BF0B0318836E800E016E07
:1037B800045083EC21F0036E033203328350031864
:1037C8007F0B0318836E84848494420EE82EFED700
:1037D80000D0010E016E045083EC21F0036E033A11
:1037E80083500318EF0B0318836E020E016E04500A
:1037F80083EC21F0036E033A034683500318DF0B72
:103808000318836E040E016E045083EC21F0036EDE
:10381800033A0346034683500318BF0B0318836E0D
:10382800080E016E045083EC21F0036E033203325C
:10383800835003187F0B0318836E848484941200CA
:1038480001C008F002C009F003C00AF004C00BF080
:103858000506D8A00606052806E10628D8A437EFED
:103868001CF039EF1CF046EF1CF0000E026E000E43
:10387800016E8EEF1CF0084A092A0A4A0B2A05062F
:10388800D8A0060608C0D9FF09C0DAFFDF50D8B4AF
:1038980050EF1CF052EF1CF07DEF1CF00AC0F6FF51
:1038A8000BC0F7FF0800F5500009D8B45EEF1CF014
:1038B80060EF1CF07DEF1CF005500610D8B467EFE0
:1038C8001CF069EF1CF07DEF1CF008C0D9FF09C09F
:1038D800DAFFDF50076E0AC0F6FF0BC0F7FF0800DB
:1038E800F5500718D8B47BEF1CF07DEF1CF03FEFC4
:1038F8001CF008C0D9FF09C0DAFFDF50076E0AC004
:10390800F6FF0BC0F7FF0800F550075C016E026A6E
:10391800D8A00206120003500410D8B496EF1CF089
:1039280098EF1CF0A1EF1CF003500410D8A49FEFEF
:103938001CF0A1EF1CF0A6EF1CF00150B4EC21F034
:10394800F3EF1CF020EE09F00350D9260450DA22D8
:10395800DE50DE10D8B4B3EF1CF0B5EF1CF0D0EF9A
:103968001CF020EE09F00350D9260450DA2210EE9C
:1039780003F00350E1260450E222DE50E65CE650F4
:10398800800A096EDE50800A0958D8B0CEEF1CF0C4
:10399800D0EF1CF0F3EF1CF020EE03F00350D92613
:1039A8000450DA22DECF05F0DDCF06F003C0D9FFE0
:1039B80004C0DAFFDECF07F0DDCF08F0055007249A
:1039C800D96E06500820DA6E01C0DFFF20EE03F042
:1039D8000350D9260450DA22DE2A000EDD22120016
:1039E800000E066E04BEFDEF1CF0FBEF1CF003EFAB
:1039F8001DF0036C041ED8B0042A010E066E02BE28
:103A08000AEF1DF008EF1DF010EF1DF0016C021E0B
:103A1800D8B0022A010E061A000E086E000E076EB4
:103A280003500410D8B41BEF1DF01DEF1DF045EF37
:103A38001DF0010E056E25EF1DF0D89003360436F3
:103A4800052A04AE2AEF1DF02CEF1DF021EF1DF022
:103A5800D890073608360350015C04500258D8A0A5
:103A680038EF1DF03AEF1DF03FEF1DF00350015EF7
:103A78000450025A0780D89004320332052E2CEFE6
:103A88001DF00650D8B44BEF1DF04DEF1DF051EF6F
:103A98001DF0076C081ED8B0082A07C001F008C03E
:103AA80002F012007EA05BEF1DF05DEF1DF067EFE6
:103AB8001DF013C00AF014C00BF011C00CF012C0B6
:103AC8000DF07AEC20F016BE6CEF1DF06EEF1DF0D5
:103AD80074EF1DF015C01AF016C01BF078EF1DF03A
:103AE800000E1B6E000E1A6E000E196E000E186E78
:103AF8008AEF1DF0000E026E200E016E11C003F059
:103B080012C004F08FEC1CF0184A192A1A50185CDD
:103B18001950800A176E1B50800A1758D8A097EFC3
:103B28001DF099EF1DF07EEF1DF07EB09EEF1DF0A9
:103B3800A0EF1DF0AAEF1DF013C00AF014C00BF09F
:103B480011C00CF012C00DF07AEC20F013C001F097
:103B580014C002F02FEC21F01A500124116E1B50F2
:103B68000220126E1200000E066E02BEC0EF1DF09B
:103B7800BEEF1DF0C6EF1DF0016C021ED8B0022A80
:103B8800010E066E04BECDEF1DF0CBEF1DF0D1EF98
:103B98001DF0036C041ED8B0042A03500410D8B4D6
:103BA800D8EF1DF0DAEF1DF0FEEF1DF0010E056EE7
:103BB800E2EF1DF0D89003360436052A04AEE7EF8D
:103BC8001DF0E9EF1DF0DEEF1DF00350015C04501D
:103BD8000258D8A0F2EF1DF0F4EF1DF0F8EF1DF039
:103BE8000350015E0450025AD89004320332052E65
:103BF800E9EF1DF00650D8B404EF1EF006EF1EF0F2
:103C08000AEF1EF0016C021ED8B0022A01C001F0B2
:103C180002C002F01200000E0114096E000E021418
:103C28000A6E800E03140B6E7F0E04140C6E09507E
:103C38000A100B100C10D8A424EF1EF026EF1EF06B
:103C48002EEF1EF0000E016E000E026E000E036EC7
:103C5800000E046E000E0514096E000E06140A6E9E
:103C6800800E07140B6E7F0E08140C6E09500A1094
:103C78000B100C10D8A443EF1EF045EF1EF04DEFCB
:103C88001EF0000E056E000E066E000E076E000E8A
:103C9800086E055001180FE1065002180CE1075094
:103CA800031809E108500418D8B45DEF1EF05FEF5F
:103CB8001EF062EF1EF0D89063EF1EF0D88012005D
:103CC8000B6E0B04D8A46BEF1EF06DEF1EF072EFB5
:103CD8001EF007507F0F0A6E7EEF1EF0020E0B18C3
:103CE800D8A479EF1EF07BEF1EF07EEF1EF0075090
:103CF800BF0F0A6E0AC005F0000E93EC21F09BEF8F
:103D08001EF008C0F6FF09C0F7FFF86A050EF76451
:103D180003D00800F55005D0F6CFE1FFF7CFE2FF5A
:103D2800E750056E010E93EC21F0084A092A08C0F5
:103D3800F6FF09C0F7FFF86A050EF76403D008001C
:103D4800F55005D0F6CFE1FFF7CFE2FFE7500009C5
:103D5800D8A4B1EF1EF0B3EF1EF085EF1EF01200ED
:103D6800000E956E969496929690000E836E8490AF
:103D780084928494270E056EF50EE82EFED7052E44
:103D8800FCD700F0000E066E300EB2EC1BF00D0EE4
:103D9800056EFC0EE82EFED7052EFCD7062A020E6D
:103DA8000664D9EF1EF0DBEF1EF0C8EF1EF0020E1E
:103DB800B2EC1BF01A0EE82EFED700D0280EB2EC9B
:103DC8001BF01A0EE82EFED700D0010EB2EC1BF045
:103DD800060E056E300EE82EFED7052EFCD700D055
:103DE8000C0EB2EC1BF01A0EE82EFED700D0060E11
:103DF800B2EC1BF01A0EE82EFED700D012009C0E73
:103E08000001E46F000EE56F200EE66F060EE76F07
:103E18009AC0E8F09BC0E9F0E2EC1FF0500E0001F8
:103E2800E46F010EE56F110EE66F060EE76F88C0AE
:103E3800E8F089C0E9F08AC0EAF08BC0EBF0E2EC68
:103E48001FF0010E076E380E086E060E096E010E81
:103E580064EC1EF0080E076E9C0E086E000E096ECC
:103E6800010E64EC1EF0010E076E2F0E086E060E92
:103E7800096E020E64EC1EF0080E076E500E086EF6
:103E8800010E096E020E64EC1EF01200140EE82EEC
:103E9800FED7C282C2B253EF1FF055EF1FF04EEFAC
:103EA8001FF0C4CF9AF000019B6B9A51286EC35043
:103EB8009A6F28C09BF09AC001F09BC002F0036A79
:103EC800046A000EAEEC16F001C00FF002C010F04C
:103ED80003C011F004C012F04B0E136E3C0E146EAA
:103EE800A00E156E3B0E166EDDEC0EF00FC088F0BE
:103EF80010C089F011C08AF012C08BF01200E0C027
:103F08007CF0E1C07DF0000E00018D6F000E8C6F1B
:103F1800A1EF1FF0DEC072F0DFC073F07C0E746E8C
:103F2800000E756EE2C076F0E3C077F031EC09F070
:103F3800725000018C2773508D237CC0F6FF7DC022
:103F4800F7FF0800F5500009D8A4ADEF1FF0AFEF58
:103F58001FF08EEF1FF08CC0DEF08DC0DFF0120076
:103F680003C007F004C008F001C009F002C00AF05D
:103F78000750056E0850066E074A082A05C0F6FF66
:103F880006C0F7FFF86A09C0D9FF0AC0DAFF094A74
:103F98000A2A050EF76403D00800F55005D0F6CFBD
:103FA800E1FFF7CFE2FFE750DF6EDF50D8A4DFEF85
:103FB8001FF0E1EF1FF0BCEF1FF01200E80E000148
:103FC800EC6F000EED6FE4C0EEF0E5C0EFF0000E10
:103FD800F26F000EF16F000EF86F000EF76FEE0E25
:103FE800DE6F000EDF6FE6C0E0F0E7C0E1F0EC0E38
:103FF800E26F000EE36F83EC1FF00001F151E4253E
:10400800D96EF251E521DA6E000EDF6E1200010E54
:10401800076E200E01180210D8B415EF20F017EF24
:1040280020F030EF20F0F70E036EFF0E046E01C093
:1040380005F002C006F0035005260450062206507B
:1040480009E1050E055CD8A02CEF20F02EEF20F03A
:1040580030EF20F0000E076E07C001F0026A120070
:10406800BF0E096EFF0E0A6E07C00BF008C00CF0F9
:1040780009500B260A500C220C5007E11A0E0B5C53
:10408800D8B049EF20F04BEF20F052EF20F0200E8F
:104098000710076E0850086E56EF20F007C007F0AB
:1040A80008C008F01200000E2C1A000E2D1A000E7F
:1040B8002E1A800E2F1A28C001F029C002F02AC03B
:1040C80003F02BC004F02CC005F02DC006F02EC064
:1040D80007F02FC008F07DEC0CF001C028F002C0FA
:1040E80029F003C02AF004C02BF01200000E106E55
:1040F800000E0F6E8BEF20F00EC001F0026A0CC0AC
:1041080003F00DC004F08FEC1CF00F4A102A0F507A
:104118000A24D96E10500B20DA6EDF500E6E0E5046
:10412800D8A499EF20F09BEF20F080EF20F0120048
:1041380014BEA9EF20F0145006E11304D8B0A7EF7D
:1041480020F0A9EF20F0B7EF20F013C015F014C04D
:1041580016F0151E161E154A162A15C013F016C09D
:1041680014F0BBEF20F013C013F014C014F01200C9
:10417800AFEC21F0A9EC21F0A2EC21F0B4EC1EF098
:104188004AEC1FF0BFEC12F081A0CDEF20F0CFEF8A
:1041980020F0D3EF20F003EC1FF0C4EF20F05DEC2B
:1041A80021F0A9EC19F0C4EF20F000EF00F0BF0EE9
:1041B800036EFF0E046E01C005F002C006F0035046
:1041C80005260450062206500AE11A0E055CD8A0FE
:1041D800F0EF20F0F3EF20F0010EF4EF20F0000EE6
:1041E800016E026A12000150021003100410D8B4C4
:1041F80000EF21F002EF21F00AEF21F0000E011A82
:10420800000E021A000E031A800E041A01C001F0F3
:1042180002C002F003C003F004C004F01200D00E84
:10422800036EFF0E046E01C005F002C006F00350D5
:1042380005260450062206500AE10A0E055CD8A09D
:1042480028EF21F02BEF21F0010E2CEF21F0000ECA
:10425800016E026A120001C003F002C004F037EFD9
:1042680021F0014A022A01C0D9FF02C0DAFFDF505B
:10427800D8A441EF21F043EF21F035EF21F00350AE
:10428800015C016E04500258026E120001EE00F04B
:10429800600EEE6AE806FDE100EE80F04C0EEE6A74
:1042A800E806FDE17F6A7E6A000EF86E0001BCEF49
:1042B80020F0010E076E010E086E060E096E010E43
:1042C80064EC1EF0010E076E010E086E060E096EF4
:1042D800020E64EC1EF0120001500302F3CF05F049
:1042E800F4CF06F001500402F350062602500302F0
:1042F800F350062605C001F006C002F01200026E57
:10430800025001140009D8B48CEF21F08EEF21F08F
:1043180091EF21F0010E92EF21F0000E1200066ECF
:1043280006B002D0849001D08480420EE82EFED7D9
:1043380000D084940550B2EC1BF01200010EC26E3E
:104348000E0EC16E870EC06E1200010E936E000E27
:10435800946E82681200000ED36E000E9B6E1200DF
:02436800120041
:020000040020DA
:08000000FFFFFFFFFFFFFFFF00
:020000040030CA
:0E000000FF02191EFF8381FF0FC00FE00F40AB
:00000001FF
